{"contracts/MediTrust.sol":{"MediTrust":{"abi":[{"anonymous":false,"inputs":[{"indexed":true,"internalType":"address","name":"patient","type":"address"},{"indexed":true,"internalType":"address","name":"viewer","type":"address"}],"name":"AccessGranted","type":"event"},{"anonymous":false,"inputs":[{"indexed":true,"internalType":"address","name":"patient","type":"address"},{"indexed":true,"internalType":"address","name":"viewer","type":"address"}],"name":"AccessRevoked","type":"event"},{"anonymous":false,"inputs":[{"indexed":true,"internalType":"uint256","name":"id","type":"uint256"},{"indexed":true,"internalType":"address","name":"insurer","type":"address"},{"indexed":true,"internalType":"address","name":"patient","type":"address"},{"indexed":false,"internalType":"string","name":"cid","type":"string"},{"indexed":false,"internalType":"uint256","name":"amount","type":"uint256"},{"indexed":false,"internalType":"string","name":"note","type":"string"},{"indexed":false,"internalType":"uint256","name":"timestamp","type":"uint256"}],"name":"ClaimSubmitted","type":"event"},{"anonymous":false,"inputs":[{"indexed":true,"internalType":"uint256","name":"id","type":"uint256"},{"indexed":false,"internalType":"string","name":"status","type":"string"},{"indexed":false,"internalType":"string","name":"note","type":"string"}],"name":"ClaimUpdated","type":"event"},{"anonymous":false,"inputs":[{"indexed":true,"internalType":"address","name":"insurer","type":"address"}],"name":"InsurerRegistered","type":"event"},{"anonymous":false,"inputs":[{"indexed":true,"internalType":"address","name":"pharmacy","type":"address"}],"name":"PharmacyRegistered","type":"event"},{"anonymous":false,"inputs":[{"indexed":true,"internalType":"address","name":"pharmacy","type":"address"},{"indexed":true,"internalType":"address","name":"patient","type":"address"},{"indexed":false,"internalType":"string","name":"cid","type":"string"},{"indexed":false,"internalType":"uint256","name":"timestamp","type":"uint256"}],"name":"PrescriptionDispensed","type":"event"},{"anonymous":false,"inputs":[{"indexed":true,"internalType":"address","name":"patient","type":"address"},{"indexed":false,"internalType":"string","name":"cid","type":"string"},{"indexed":false,"internalType":"string","name":"description","type":"string"},{"indexed":false,"internalType":"uint256","name":"timestamp","type":"uint256"}],"name":"RecordStored","type":"event"},{"inputs":[{"internalType":"address","name":"patient","type":"address"},{"internalType":"string","name":"cid","type":"string"}],"name":"dispensePrescription","outputs":[],"stateMutability":"nonpayable","type":"function"},{"inputs":[{"internalType":"address","name":"patient","type":"address"}],"name":"getClaimsByPatient","outputs":[{"components":[{"internalType":"uint256","name":"id","type":"uint256"},{"internalType":"address","name":"insurer","type":"address"},{"internalType":"address","name":"patient","type":"address"},{"internalType":"string","name":"cid","type":"string"},{"internalType":"uint256","name":"amount","type":"uint256"},{"internalType":"string","name":"status","type":"string"},{"internalType":"string","name":"note","type":"string"},{"internalType":"uint256","name":"timestamp","type":"uint256"}],"internalType":"struct MediTrust.Claim[]","name":"","type":"tuple[]"}],"stateMutability":"view","type":"function"},{"inputs":[{"internalType":"address","name":"patient","type":"address"}],"name":"getDispensesByPatient","outputs":[{"components":[{"internalType":"address","name":"pharmacy","type":"address"},{"internalType":"address","name":"patient","type":"address"},{"internalType":"string","name":"cid","type":"string"},{"internalType":"uint256","name":"timestamp","type":"uint256"}],"internalType":"struct MediTrust.Dispense[]","name":"","type":"tuple[]"}],"stateMutability":"view","type":"function"},{"inputs":[{"internalType":"address","name":"_patient","type":"address"}],"name":"getRecords","outputs":[{"components":[{"internalType":"address","name":"patient","type":"address"},{"internalType":"string","name":"cid","type":"string"},{"internalType":"string","name":"description","type":"string"},{"internalType":"uint256","name":"timestamp","type":"uint256"}],"internalType":"struct MediTrust.Record[]","name":"","type":"tuple[]"}],"stateMutability":"view","type":"function"},{"inputs":[{"internalType":"address","name":"patient","type":"address"}],"name":"getRecordsAuthorized","outputs":[{"components":[{"internalType":"address","name":"patient","type":"address"},{"internalType":"string","name":"cid","type":"string"},{"internalType":"string","name":"description","type":"string"},{"internalType":"uint256","name":"timestamp","type":"uint256"}],"internalType":"struct MediTrust.Record[]","name":"","type":"tuple[]"}],"stateMutability":"view","type":"function"},{"inputs":[{"internalType":"address","name":"viewer","type":"address"}],"name":"grantReadAccess","outputs":[],"stateMutability":"nonpayable","type":"function"},{"inputs":[{"internalType":"address","name":"patient","type":"address"},{"internalType":"address","name":"viewer","type":"address"}],"name":"hasReadAccess","outputs":[{"internalType":"bool","name":"","type":"bool"}],"stateMutability":"view","type":"function"},{"inputs":[{"internalType":"address","name":"","type":"address"}],"name":"isInsurer","outputs":[{"internalType":"bool","name":"","type":"bool"}],"stateMutability":"view","type":"function"},{"inputs":[{"internalType":"address","name":"","type":"address"}],"name":"isPharmacy","outputs":[{"internalType":"bool","name":"","type":"bool"}],"stateMutability":"view","type":"function"},{"inputs":[],"name":"registerInsurer","outputs":[],"stateMutability":"nonpayable","type":"function"},{"inputs":[],"name":"registerPharmacy","outputs":[],"stateMutability":"nonpayable","type":"function"},{"inputs":[{"internalType":"address","name":"viewer","type":"address"}],"name":"revokeReadAccess","outputs":[],"stateMutability":"nonpayable","type":"function"},{"inputs":[{"internalType":"address","name":"_patient","type":"address"},{"internalType":"string","name":"_cid","type":"string"},{"internalType":"string","name":"_desc","type":"string"}],"name":"storeRecord","outputs":[],"stateMutability":"nonpayable","type":"function"},{"inputs":[{"internalType":"address","name":"patient","type":"address"},{"internalType":"string","name":"cid","type":"string"},{"internalType":"uint256","name":"amount","type":"uint256"},{"internalType":"string","name":"note","type":"string"}],"name":"submitClaim","outputs":[],"stateMutability":"nonpayable","type":"function"},{"inputs":[{"internalType":"uint256","name":"id","type":"uint256"},{"internalType":"string","name":"status","type":"string"},{"internalType":"string","name":"note","type":"string"}],"name":"updateClaimStatus","outputs":[],"stateMutability":"nonpayable","type":"function"}],"evm":{"bytecode":{"linkReferences":{},"object":"608060405234801561001057600080fd5b50611c40806100206000396000f3fe608060405234801561001057600080fd5b50600436106100f55760003560e01c8063bcea8cd511610097578063e82d3cec11610066578063e82d3cec14610222578063ebc14ea714610235578063f7ca0af01461023d578063fe48c6b21461025057600080fd5b8063bcea8cd5146101a6578063c423a791146101b9578063da7897e2146101cc578063dfb0fda3146101ff57600080fd5b8063804b7bf2116100d3578063804b7bf21461012a578063967ddcf514610153578063a0076e8414610173578063b42e17fb1461019357600080fd5b8063425600b8146100fa5780634e51389a1461010f5780635986696614610117575b600080fd5b61010d61010836600461136e565b61028c565b005b61010d6102e2565b61010d6101253660046113d9565b610324565b61013d61013836600461136e565b61055f565b60405161014a91906114a9565b60405180910390f35b61016661016136600461136e565b610693565b60405161014a9190611543565b61018661018136600461136e565b610a69565b60405161014a919061161d565b61010d6101a136600461136e565b610c17565b61010d6101b43660046116b6565b610c70565b61010d6101c7366004611730565b610dd8565b6101ef6101da36600461136e565b60046020526000908152604090205460ff1681565b604051901515815260200161014a565b6101ef61020d36600461136e565b60036020526000908152604090205460ff1681565b61018661023036600461136e565b610f60565b61010d611182565b61010d61024b366004611826565b6111c4565b6101ef61025e36600461189a565b6001600160a01b03918216600090815260026020908152604080832093909416825291909152205460ff1690565b3360008181526002602090815260408083206001600160a01b0386168085529252808320805460ff19169055519092917f825c8be24eb0df19500f63e86c29e7d0d951e73056b889b891d85e40938d9b6e91a350565b33600081815260036020526040808220805460ff19166001179055517f1790d2915e4c45acea19ac4c15c61503a1428ec4921958b23af77114039c48019190a2565b3360009081526004602052604090205460ff166103765760405162461bcd60e51b815260206004820152600b60248201526a2737ba1034b739bab932b960a91b60448201526064015b60405180910390fd5b600060068054905090506006604051806101000160405280838152602001336001600160a01b03168152602001896001600160a01b0316815260200188888080601f0160208091040260200160405190810160405280939291908181526020018383808284376000920191909152505050908252506020808201889052604080518082018252600981526814dd589b5a5d1d195960ba1b81840152818401528051601f88018390048302810183019091528681526060909201919087908790819084018382808284376000920182905250938552505042602093840152508354600181810186559482529082902083516008909202019081559082015192810180546001600160a01b039485166001600160a01b031991821617909155604083015160028301805491909516911617909255606081015190919060038201906104bf9082611956565b506080820151600482015560a082015160058201906104de9082611956565b5060c082015160068201906104f39082611956565b5060e082015181600701555050866001600160a01b0316336001600160a01b0316827f0708f45fbc157b8c84bde1796b76e5ae602093565d545fee7b85ae708d7a23a989898989894260405161054e96959493929190611a3f565b60405180910390a450505050505050565b6001600160a01b0381166000908152600560209081526040808320805482518185028101850190935280835260609492939192909184015b82821015610688576000848152602090819020604080516080810182526004860290920180546001600160a01b03908116845260018201541693830193909352600283018054929392918401916105ed906118cd565b80601f0160208091040260200160405190810160405280929190818152602001828054610619906118cd565b80156106665780601f1061063b57610100808354040283529160200191610666565b820191906000526020600020905b81548152906001019060200180831161064957829003601f168201915b5050505050815260200160038201548152505081526020019060010190610597565b505050509050919050565b60606000805b60065481101561070257836001600160a01b0316600682815481106106c0576106c0611a80565b60009182526020909120600260089092020101546001600160a01b0316036106f057816106ec81611a96565b9250505b806106fa81611a96565b915050610699565b5060008167ffffffffffffffff81111561071e5761071e611783565b6040519080825280602002602001820160405280156107a957816020015b6107966040518061010001604052806000815260200160006001600160a01b0316815260200160006001600160a01b0316815260200160608152602001600081526020016060815260200160608152602001600081525090565b81526020019060019003908161073c5790505b5090506000805b600654811015610a5f57856001600160a01b0316600682815481106107d7576107d7611a80565b60009182526020909120600260089092020101546001600160a01b031603610a4d576006818154811061080c5761080c611a80565b6000918252602091829020604080516101008101825260089093029091018054835260018101546001600160a01b0390811694840194909452600281015490931690820152600382018054919291606084019190610869906118cd565b80601f0160208091040260200160405190810160405280929190818152602001828054610895906118cd565b80156108e25780601f106108b7576101008083540402835291602001916108e2565b820191906000526020600020905b8154815290600101906020018083116108c557829003601f168201915b5050505050815260200160048201548152602001600582018054610905906118cd565b80601f0160208091040260200160405190810160405280929190818152602001828054610931906118cd565b801561097e5780601f106109535761010080835404028352916020019161097e565b820191906000526020600020905b81548152906001019060200180831161096157829003601f168201915b50505050508152602001600682018054610997906118cd565b80601f01602080910402602001604051908101604052809291908181526020018280546109c3906118cd565b8015610a105780601f106109e557610100808354040283529160200191610a10565b820191906000526020600020905b8154815290600101906020018083116109f357829003601f168201915b50505050508152602001600782015481525050838380610a2f90611a96565b945081518110610a4157610a41611a80565b60200260200101819052505b80610a5781611a96565b9150506107b0565b5090949350505050565b6001600160a01b0381166000908152600160209081526040808320805482518185028101850190935280835260609492939192909184015b8282101561068857600084815260209081902060408051608081019091526004850290910180546001600160a01b031682526001810180549293919291840191610aea906118cd565b80601f0160208091040260200160405190810160405280929190818152602001828054610b16906118cd565b8015610b635780601f10610b3857610100808354040283529160200191610b63565b820191906000526020600020905b815481529060010190602001808311610b4657829003601f168201915b50505050508152602001600282018054610b7c906118cd565b80601f0160208091040260200160405190810160405280929190818152602001828054610ba8906118cd565b8015610bf55780601f10610bca57610100808354040283529160200191610bf5565b820191906000526020600020905b815481529060010190602001808311610bd857829003601f168201915b5050505050815260200160038201548152505081526020019060010190610aa1565b3360008181526002602090815260408083206001600160a01b0386168085529252808320805460ff19166001179055519092917f9f520b3bfc56d06f7065d10b4683b3f57ac8895d5026cd176dee95ce1454cb8d91a350565b3360009081526004602052604090205460ff16610cbd5760405162461bcd60e51b815260206004820152600b60248201526a2737ba1034b739bab932b960a91b604482015260640161036d565b6006548510610cfe5760405162461bcd60e51b815260206004820152600d60248201526c496e76616c696420636c61696d60981b604482015260640161036d565b600060068681548110610d1357610d13611a80565b600091825260209091206001600890920201908101549091506001600160a01b03163314610d725760405162461bcd60e51b815260206004820152600c60248201526b27b7363c9034b739bab932b960a11b604482015260640161036d565b60058101610d81858783611abd565b5060068101610d91838583611abd565b50857f0352338c0a745eb7b4ffe245489a99b3e7cffe44ddcf8a9a10561b904e5ff5bc86868686604051610dc89493929190611b7e565b60405180910390a2505050505050565b3360009081526003602052604090205460ff16610e265760405162461bcd60e51b815260206004820152600c60248201526b4e6f7420706861726d61637960a01b604482015260640161036d565b60006040518060800160405280336001600160a01b03168152602001856001600160a01b0316815260200184848080601f0160208091040260200160405190810160405280939291908181526020018383808284376000920182905250938552505042602093840152506001600160a01b03808816825260058352604080832080546001818101835591855293859020865160049095020180549484166001600160a01b031995861617815594860151908501805491909316931692909217905582015191925082916002820190610efe9082611956565b50606082015181600301555050836001600160a01b0316336001600160a01b03167f4f7068636b4e2f3b8508718963a5d0a3ae08f55a6cd98c115e95a4d453505f97858542604051610f5293929190611bb0565b60405180910390a350505050565b6060336001600160a01b0383161480610f9c57506001600160a01b038216600090815260026020908152604080832033845290915290205460ff165b610fd95760405162461bcd60e51b815260206004820152600e60248201526d139bdd08185d5d1a1bdc9a5e995960921b604482015260640161036d565b6001600160a01b038216600090815260016020908152604080832080548251818502810185019093528083529193909284015b8282101561068857600084815260209081902060408051608081019091526004850290910180546001600160a01b031682526001810180549293919291840191611055906118cd565b80601f0160208091040260200160405190810160405280929190818152602001828054611081906118cd565b80156110ce5780601f106110a3576101008083540402835291602001916110ce565b820191906000526020600020905b8154815290600101906020018083116110b157829003601f168201915b505050505081526020016002820180546110e7906118cd565b80601f0160208091040260200160405190810160405280929190818152602001828054611113906118cd565b80156111605780601f1061113557610100808354040283529160200191611160565b820191906000526020600020905b81548152906001019060200180831161114357829003601f168201915b505050505081526020016003820154815250508152602001906001019061100c565b33600081815260046020526040808220805460ff19166001179055517f25fb9f4c94fb71107ebc226956d9fa5848c48e1a66ec8a02d3e74eb6db60f9369190a2565b604080516080810182526001600160a01b038581168083526020808401878152848601879052426060860152600092835260018083529583208054808801825590845291909220845160049092020180546001600160a01b031916919093161782555191928392908201906112399082611956565b506040820151600282019061124e9082611956565b50606091909101516003909101556000805460018101825590805281517f290decd9548b62a8d60345a988386fc84ba6bc95484008f6362f93160ef3e563600490920291820180546001600160a01b0319166001600160a01b03909216919091178155602083015183927f290decd9548b62a8d60345a988386fc84ba6bc95484008f6362f93160ef3e56401906112e59082611956565b50604082015160028201906112fa9082611956565b50606082015181600301555050836001600160a01b03167f2f476d5c183b5f6db52b986731f160de20d40d82c9f688c3d78442a090a4fea884844260405161134493929190611bd4565b60405180910390a250505050565b80356001600160a01b038116811461136957600080fd5b919050565b60006020828403121561138057600080fd5b61138982611352565b9392505050565b60008083601f8401126113a257600080fd5b50813567ffffffffffffffff8111156113ba57600080fd5b6020830191508360208285010111156113d257600080fd5b9250929050565b600080600080600080608087890312156113f257600080fd5b6113fb87611352565b9550602087013567ffffffffffffffff8082111561141857600080fd5b6114248a838b01611390565b909750955060408901359450606089013591508082111561144457600080fd5b5061145189828a01611390565b979a9699509497509295939492505050565b6000815180845260005b818110156114895760208185018101518683018201520161146d565b506000602082860101526020601f19601f83011685010191505092915050565b60006020808301818452808551808352604092508286019150828160051b87010184880160005b8381101561153557888303603f19018552815180516001600160a01b0390811685528882015116888501528681015160808886018190529061151482870182611463565b606093840151969093019590955250948701949250908601906001016114d0565b509098975050505050505050565b60006020808301818452808551808352604092508286019150828160051b87010184880160005b8381101561153557603f19898403018552815180518452878101516001600160a01b039081168986015287820151168785015260608082015161010082870181905291906115ba83880182611463565b92505050608080830151818701525060a080830151868303828801526115e08382611463565b9250505060c080830151868303828801526115fb8382611463565b60e094850151979094019690965250509487019492509086019060010161156a565b60006020808301818452808551808352604092508286019150828160051b87010184880160005b8381101561153557888303603f19018552815180516001600160a01b031684528781015160808986018190529061167d82870182611463565b91505087820151858203898701526116958282611463565b60609384015196909301959095525094870194925090860190600101611644565b6000806000806000606086880312156116ce57600080fd5b85359450602086013567ffffffffffffffff808211156116ed57600080fd5b6116f989838a01611390565b9096509450604088013591508082111561171257600080fd5b5061171f88828901611390565b969995985093965092949392505050565b60008060006040848603121561174557600080fd5b61174e84611352565b9250602084013567ffffffffffffffff81111561176a57600080fd5b61177686828701611390565b9497909650939450505050565b634e487b7160e01b600052604160045260246000fd5b600082601f8301126117aa57600080fd5b813567ffffffffffffffff808211156117c5576117c5611783565b604051601f8301601f19908116603f011681019082821181831017156117ed576117ed611783565b8160405283815286602085880101111561180657600080fd5b836020870160208301376000602085830101528094505050505092915050565b60008060006060848603121561183b57600080fd5b61184484611352565b9250602084013567ffffffffffffffff8082111561186157600080fd5b61186d87838801611799565b9350604086013591508082111561188357600080fd5b5061189086828701611799565b9150509250925092565b600080604083850312156118ad57600080fd5b6118b683611352565b91506118c460208401611352565b90509250929050565b600181811c908216806118e157607f821691505b60208210810361190157634e487b7160e01b600052602260045260246000fd5b50919050565b601f82111561195157600081815260208120601f850160051c8101602086101561192e5750805b601f850160051c820191505b8181101561194d5782815560010161193a565b5050505b505050565b815167ffffffffffffffff81111561197057611970611783565b6119848161197e84546118cd565b84611907565b602080601f8311600181146119b957600084156119a15750858301515b600019600386901b1c1916600185901b17855561194d565b600085815260208120601f198616915b828110156119e8578886015182559484019460019091019084016119c9565b5085821015611a065787850151600019600388901b60f8161c191681555b5050505050600190811b01905550565b81835281816020850137506000828201602090810191909152601f909101601f19169091010190565b608081526000611a5360808301888a611a16565b8660208401528281036040840152611a6c818688611a16565b915050826060830152979650505050505050565b634e487b7160e01b600052603260045260246000fd5b600060018201611ab657634e487b7160e01b600052601160045260246000fd5b5060010190565b67ffffffffffffffff831115611ad557611ad5611783565b611ae983611ae383546118cd565b83611907565b6000601f841160018114611b1d5760008515611b055750838201355b600019600387901b1c1916600186901b178355611b77565b600083815260209020601f19861690835b82811015611b4e5786850135825560209485019460019092019101611b2e565b5086821015611b6b5760001960f88860031b161c19848701351681555b505060018560011b0183555b5050505050565b604081526000611b92604083018688611a16565b8281036020840152611ba5818587611a16565b979650505050505050565b604081526000611bc4604083018587611a16565b9050826020830152949350505050565b606081526000611be76060830186611463565b8281036020840152611bf98186611463565b91505082604083015294935050505056fea26469706673582212200b7466ed030eee98fc57fecdeea299c310c5c6aa0598bdedc77179c49e98fa6b64736f6c63430008140033","opcodes":"PUSH1 0x80 PUSH1 0x40 MSTORE CALLVALUE DUP1 ISZERO PUSH2 0x10 JUMPI PUSH1 0x0 DUP1 REVERT JUMPDEST POP PUSH2 0x1C40 DUP1 PUSH2 0x20 PUSH1 0x0 CODECOPY PUSH1 0x0 RETURN INVALID PUSH1 0x80 PUSH1 0x40 MSTORE CALLVALUE DUP1 ISZERO PUSH2 0x10 JUMPI PUSH1 0x0 DUP1 REVERT JUMPDEST POP PUSH1 0x4 CALLDATASIZE LT PUSH2 0xF5 JUMPI PUSH1 0x0 CALLDATALOAD PUSH1 0xE0 SHR DUP1 PUSH4 0xBCEA8CD5 GT PUSH2 0x97 JUMPI DUP1 PUSH4 0xE82D3CEC GT PUSH2 0x66 JUMPI DUP1 PUSH4 0xE82D3CEC EQ PUSH2 0x222 JUMPI DUP1 PUSH4 0xEBC14EA7 EQ PUSH2 0x235 JUMPI DUP1 PUSH4 0xF7CA0AF0 EQ PUSH2 0x23D JUMPI DUP1 PUSH4 0xFE48C6B2 EQ PUSH2 0x250 JUMPI PUSH1 0x0 DUP1 REVERT JUMPDEST DUP1 PUSH4 0xBCEA8CD5 EQ PUSH2 0x1A6 JUMPI DUP1 PUSH4 0xC423A791 EQ PUSH2 0x1B9 JUMPI DUP1 PUSH4 0xDA7897E2 EQ PUSH2 0x1CC JUMPI DUP1 PUSH4 0xDFB0FDA3 EQ PUSH2 0x1FF JUMPI PUSH1 0x0 DUP1 REVERT JUMPDEST DUP1 PUSH4 0x804B7BF2 GT PUSH2 0xD3 JUMPI DUP1 PUSH4 0x804B7BF2 EQ PUSH2 0x12A JUMPI DUP1 PUSH4 0x967DDCF5 EQ PUSH2 0x153 JUMPI DUP1 PUSH4 0xA0076E84 EQ PUSH2 0x173 JUMPI DUP1 PUSH4 0xB42E17FB EQ PUSH2 0x193 JUMPI PUSH1 0x0 DUP1 REVERT JUMPDEST DUP1 PUSH4 0x425600B8 EQ PUSH2 0xFA JUMPI DUP1 PUSH4 0x4E51389A EQ PUSH2 0x10F JUMPI DUP1 PUSH4 0x59866966 EQ PUSH2 0x117 JUMPI JUMPDEST PUSH1 0x0 DUP1 REVERT JUMPDEST PUSH2 0x10D PUSH2 0x108 CALLDATASIZE PUSH1 0x4 PUSH2 0x136E JUMP JUMPDEST PUSH2 0x28C JUMP JUMPDEST STOP JUMPDEST PUSH2 0x10D PUSH2 0x2E2 JUMP JUMPDEST PUSH2 0x10D PUSH2 0x125 CALLDATASIZE PUSH1 0x4 PUSH2 0x13D9 JUMP JUMPDEST PUSH2 0x324 JUMP JUMPDEST PUSH2 0x13D PUSH2 0x138 CALLDATASIZE PUSH1 0x4 PUSH2 0x136E JUMP JUMPDEST PUSH2 0x55F JUMP JUMPDEST PUSH1 0x40 MLOAD PUSH2 0x14A SWAP2 SWAP1 PUSH2 0x14A9 JUMP JUMPDEST PUSH1 0x40 MLOAD DUP1 SWAP2 SUB SWAP1 RETURN JUMPDEST PUSH2 0x166 PUSH2 0x161 CALLDATASIZE PUSH1 0x4 PUSH2 0x136E JUMP JUMPDEST PUSH2 0x693 JUMP JUMPDEST PUSH1 0x40 MLOAD PUSH2 0x14A SWAP2 SWAP1 PUSH2 0x1543 JUMP JUMPDEST PUSH2 0x186 PUSH2 0x181 CALLDATASIZE PUSH1 0x4 PUSH2 0x136E JUMP JUMPDEST PUSH2 0xA69 JUMP JUMPDEST PUSH1 0x40 MLOAD PUSH2 0x14A SWAP2 SWAP1 PUSH2 0x161D JUMP JUMPDEST PUSH2 0x10D PUSH2 0x1A1 CALLDATASIZE PUSH1 0x4 PUSH2 0x136E JUMP JUMPDEST PUSH2 0xC17 JUMP JUMPDEST PUSH2 0x10D PUSH2 0x1B4 CALLDATASIZE PUSH1 0x4 PUSH2 0x16B6 JUMP JUMPDEST PUSH2 0xC70 JUMP JUMPDEST PUSH2 0x10D PUSH2 0x1C7 CALLDATASIZE PUSH1 0x4 PUSH2 0x1730 JUMP JUMPDEST PUSH2 0xDD8 JUMP JUMPDEST PUSH2 0x1EF PUSH2 0x1DA CALLDATASIZE PUSH1 0x4 PUSH2 0x136E JUMP JUMPDEST PUSH1 0x4 PUSH1 0x20 MSTORE PUSH1 0x0 SWAP1 DUP2 MSTORE PUSH1 0x40 SWAP1 KECCAK256 SLOAD PUSH1 0xFF AND DUP2 JUMP JUMPDEST PUSH1 0x40 MLOAD SWAP1 ISZERO ISZERO DUP2 MSTORE PUSH1 0x20 ADD PUSH2 0x14A JUMP JUMPDEST PUSH2 0x1EF PUSH2 0x20D CALLDATASIZE PUSH1 0x4 PUSH2 0x136E JUMP JUMPDEST PUSH1 0x3 PUSH1 0x20 MSTORE PUSH1 0x0 SWAP1 DUP2 MSTORE PUSH1 0x40 SWAP1 KECCAK256 SLOAD PUSH1 0xFF AND DUP2 JUMP JUMPDEST PUSH2 0x186 PUSH2 0x230 CALLDATASIZE PUSH1 0x4 PUSH2 0x136E JUMP JUMPDEST PUSH2 0xF60 JUMP JUMPDEST PUSH2 0x10D PUSH2 0x1182 JUMP JUMPDEST PUSH2 0x10D PUSH2 0x24B CALLDATASIZE PUSH1 0x4 PUSH2 0x1826 JUMP JUMPDEST PUSH2 0x11C4 JUMP JUMPDEST PUSH2 0x1EF PUSH2 0x25E CALLDATASIZE PUSH1 0x4 PUSH2 0x189A JUMP JUMPDEST PUSH1 0x1 PUSH1 0x1 PUSH1 0xA0 SHL SUB SWAP2 DUP3 AND PUSH1 0x0 SWAP1 DUP2 MSTORE PUSH1 0x2 PUSH1 0x20 SWAP1 DUP2 MSTORE PUSH1 0x40 DUP1 DUP4 KECCAK256 SWAP4 SWAP1 SWAP5 AND DUP3 MSTORE SWAP2 SWAP1 SWAP2 MSTORE KECCAK256 SLOAD PUSH1 0xFF AND SWAP1 JUMP JUMPDEST CALLER PUSH1 0x0 DUP2 DUP2 MSTORE PUSH1 0x2 PUSH1 0x20 SWAP1 DUP2 MSTORE PUSH1 0x40 DUP1 DUP4 KECCAK256 PUSH1 0x1 PUSH1 0x1 PUSH1 0xA0 SHL SUB DUP7 AND DUP1 DUP6 MSTORE SWAP3 MSTORE DUP1 DUP4 KECCAK256 DUP1 SLOAD PUSH1 0xFF NOT AND SWAP1 SSTORE MLOAD SWAP1 SWAP3 SWAP2 PUSH32 0x825C8BE24EB0DF19500F63E86C29E7D0D951E73056B889B891D85E40938D9B6E SWAP2 LOG3 POP JUMP JUMPDEST CALLER PUSH1 0x0 DUP2 DUP2 MSTORE PUSH1 0x3 PUSH1 0x20 MSTORE PUSH1 0x40 DUP1 DUP3 KECCAK256 DUP1 SLOAD PUSH1 0xFF NOT AND PUSH1 0x1 OR SWAP1 SSTORE MLOAD PUSH32 0x1790D2915E4C45ACEA19AC4C15C61503A1428EC4921958B23AF77114039C4801 SWAP2 SWAP1 LOG2 JUMP JUMPDEST CALLER PUSH1 0x0 SWAP1 DUP2 MSTORE PUSH1 0x4 PUSH1 0x20 MSTORE PUSH1 0x40 SWAP1 KECCAK256 SLOAD PUSH1 0xFF AND PUSH2 0x376 JUMPI PUSH1 0x40 MLOAD PUSH3 0x461BCD PUSH1 0xE5 SHL DUP2 MSTORE PUSH1 0x20 PUSH1 0x4 DUP3 ADD MSTORE PUSH1 0xB PUSH1 0x24 DUP3 ADD MSTORE PUSH11 0x2737BA1034B739BAB932B9 PUSH1 0xA9 SHL PUSH1 0x44 DUP3 ADD MSTORE PUSH1 0x64 ADD JUMPDEST PUSH1 0x40 MLOAD DUP1 SWAP2 SUB SWAP1 REVERT JUMPDEST PUSH1 0x0 PUSH1 0x6 DUP1 SLOAD SWAP1 POP SWAP1 POP PUSH1 0x6 PUSH1 0x40 MLOAD DUP1 PUSH2 0x100 ADD PUSH1 0x40 MSTORE DUP1 DUP4 DUP2 MSTORE PUSH1 0x20 ADD CALLER PUSH1 0x1 PUSH1 0x1 PUSH1 0xA0 SHL SUB AND DUP2 MSTORE PUSH1 0x20 ADD DUP10 PUSH1 0x1 PUSH1 0x1 PUSH1 0xA0 SHL SUB AND DUP2 MSTORE PUSH1 0x20 ADD DUP9 DUP9 DUP1 DUP1 PUSH1 0x1F ADD PUSH1 0x20 DUP1 SWAP2 DIV MUL PUSH1 0x20 ADD PUSH1 0x40 MLOAD SWAP1 DUP2 ADD PUSH1 0x40 MSTORE DUP1 SWAP4 SWAP3 SWAP2 SWAP1 DUP2 DUP2 MSTORE PUSH1 0x20 ADD DUP4 DUP4 DUP1 DUP3 DUP5 CALLDATACOPY PUSH1 0x0 SWAP3 ADD SWAP2 SWAP1 SWAP2 MSTORE POP POP POP SWAP1 DUP3 MSTORE POP PUSH1 0x20 DUP1 DUP3 ADD DUP9 SWAP1 MSTORE PUSH1 0x40 DUP1 MLOAD DUP1 DUP3 ADD DUP3 MSTORE PUSH1 0x9 DUP2 MSTORE PUSH9 0x14DD589B5A5D1D1959 PUSH1 0xBA SHL DUP2 DUP5 ADD MSTORE DUP2 DUP5 ADD MSTORE DUP1 MLOAD PUSH1 0x1F DUP9 ADD DUP4 SWAP1 DIV DUP4 MUL DUP2 ADD DUP4 ADD SWAP1 SWAP2 MSTORE DUP7 DUP2 MSTORE PUSH1 0x60 SWAP1 SWAP3 ADD SWAP2 SWAP1 DUP8 SWAP1 DUP8 SWAP1 DUP2 SWAP1 DUP5 ADD DUP4 DUP3 DUP1 DUP3 DUP5 CALLDATACOPY PUSH1 0x0 SWAP3 ADD DUP3 SWAP1 MSTORE POP SWAP4 DUP6 MSTORE POP POP TIMESTAMP PUSH1 0x20 SWAP4 DUP5 ADD MSTORE POP DUP4 SLOAD PUSH1 0x1 DUP2 DUP2 ADD DUP7 SSTORE SWAP5 DUP3 MSTORE SWAP1 DUP3 SWAP1 KECCAK256 DUP4 MLOAD PUSH1 0x8 SWAP1 SWAP3 MUL ADD SWAP1 DUP2 SSTORE SWAP1 DUP3 ADD MLOAD SWAP3 DUP2 ADD DUP1 SLOAD PUSH1 0x1 PUSH1 0x1 PUSH1 0xA0 SHL SUB SWAP5 DUP6 AND PUSH1 0x1 PUSH1 0x1 PUSH1 0xA0 SHL SUB NOT SWAP2 DUP3 AND OR SWAP1 SWAP2 SSTORE PUSH1 0x40 DUP4 ADD MLOAD PUSH1 0x2 DUP4 ADD DUP1 SLOAD SWAP2 SWAP1 SWAP6 AND SWAP2 AND OR SWAP1 SWAP3 SSTORE PUSH1 0x60 DUP2 ADD MLOAD SWAP1 SWAP2 SWAP1 PUSH1 0x3 DUP3 ADD SWAP1 PUSH2 0x4BF SWAP1 DUP3 PUSH2 0x1956 JUMP JUMPDEST POP PUSH1 0x80 DUP3 ADD MLOAD PUSH1 0x4 DUP3 ADD SSTORE PUSH1 0xA0 DUP3 ADD MLOAD PUSH1 0x5 DUP3 ADD SWAP1 PUSH2 0x4DE SWAP1 DUP3 PUSH2 0x1956 JUMP JUMPDEST POP PUSH1 0xC0 DUP3 ADD MLOAD PUSH1 0x6 DUP3 ADD SWAP1 PUSH2 0x4F3 SWAP1 DUP3 PUSH2 0x1956 JUMP JUMPDEST POP PUSH1 0xE0 DUP3 ADD MLOAD DUP2 PUSH1 0x7 ADD SSTORE POP POP DUP7 PUSH1 0x1 PUSH1 0x1 PUSH1 0xA0 SHL SUB AND CALLER PUSH1 0x1 PUSH1 0x1 PUSH1 0xA0 SHL SUB AND DUP3 PUSH32 0x708F45FBC157B8C84BDE1796B76E5AE602093565D545FEE7B85AE708D7A23A9 DUP10 DUP10 DUP10 DUP10 DUP10 TIMESTAMP PUSH1 0x40 MLOAD PUSH2 0x54E SWAP7 SWAP6 SWAP5 SWAP4 SWAP3 SWAP2 SWAP1 PUSH2 0x1A3F JUMP JUMPDEST PUSH1 0x40 MLOAD DUP1 SWAP2 SUB SWAP1 LOG4 POP POP POP POP POP POP POP JUMP JUMPDEST PUSH1 0x1 PUSH1 0x1 PUSH1 0xA0 SHL SUB DUP2 AND PUSH1 0x0 SWAP1 DUP2 MSTORE PUSH1 0x5 PUSH1 0x20 SWAP1 DUP2 MSTORE PUSH1 0x40 DUP1 DUP4 KECCAK256 DUP1 SLOAD DUP3 MLOAD DUP2 DUP6 MUL DUP2 ADD DUP6 ADD SWAP1 SWAP4 MSTORE DUP1 DUP4 MSTORE PUSH1 0x60 SWAP5 SWAP3 SWAP4 SWAP2 SWAP3 SWAP1 SWAP2 DUP5 ADD JUMPDEST DUP3 DUP3 LT ISZERO PUSH2 0x688 JUMPI PUSH1 0x0 DUP5 DUP2 MSTORE PUSH1 0x20 SWAP1 DUP2 SWAP1 KECCAK256 PUSH1 0x40 DUP1 MLOAD PUSH1 0x80 DUP2 ADD DUP3 MSTORE PUSH1 0x4 DUP7 MUL SWAP1 SWAP3 ADD DUP1 SLOAD PUSH1 0x1 PUSH1 0x1 PUSH1 0xA0 SHL SUB SWAP1 DUP2 AND DUP5 MSTORE PUSH1 0x1 DUP3 ADD SLOAD AND SWAP4 DUP4 ADD SWAP4 SWAP1 SWAP4 MSTORE PUSH1 0x2 DUP4 ADD DUP1 SLOAD SWAP3 SWAP4 SWAP3 SWAP2 DUP5 ADD SWAP2 PUSH2 0x5ED SWAP1 PUSH2 0x18CD JUMP JUMPDEST DUP1 PUSH1 0x1F ADD PUSH1 0x20 DUP1 SWAP2 DIV MUL PUSH1 0x20 ADD PUSH1 0x40 MLOAD SWAP1 DUP2 ADD PUSH1 0x40 MSTORE DUP1 SWAP3 SWAP2 SWAP1 DUP2 DUP2 MSTORE PUSH1 0x20 ADD DUP3 DUP1 SLOAD PUSH2 0x619 SWAP1 PUSH2 0x18CD JUMP JUMPDEST DUP1 ISZERO PUSH2 0x666 JUMPI DUP1 PUSH1 0x1F LT PUSH2 0x63B JUMPI PUSH2 0x100 DUP1 DUP4 SLOAD DIV MUL DUP4 MSTORE SWAP2 PUSH1 0x20 ADD SWAP2 PUSH2 0x666 JUMP JUMPDEST DUP3 ADD SWAP2 SWAP1 PUSH1 0x0 MSTORE PUSH1 0x20 PUSH1 0x0 KECCAK256 SWAP1 JUMPDEST DUP2 SLOAD DUP2 MSTORE SWAP1 PUSH1 0x1 ADD SWAP1 PUSH1 0x20 ADD DUP1 DUP4 GT PUSH2 0x649 JUMPI DUP3 SWAP1 SUB PUSH1 0x1F AND DUP3 ADD SWAP2 JUMPDEST POP POP POP POP POP DUP2 MSTORE PUSH1 0x20 ADD PUSH1 0x3 DUP3 ADD SLOAD DUP2 MSTORE POP POP DUP2 MSTORE PUSH1 0x20 ADD SWAP1 PUSH1 0x1 ADD SWAP1 PUSH2 0x597 JUMP JUMPDEST POP POP POP POP SWAP1 POP SWAP2 SWAP1 POP JUMP JUMPDEST PUSH1 0x60 PUSH1 0x0 DUP1 JUMPDEST PUSH1 0x6 SLOAD DUP2 LT ISZERO PUSH2 0x702 JUMPI DUP4 PUSH1 0x1 PUSH1 0x1 PUSH1 0xA0 SHL SUB AND PUSH1 0x6 DUP3 DUP2 SLOAD DUP2 LT PUSH2 0x6C0 JUMPI PUSH2 0x6C0 PUSH2 0x1A80 JUMP JUMPDEST PUSH1 0x0 SWAP2 DUP3 MSTORE PUSH1 0x20 SWAP1 SWAP2 KECCAK256 PUSH1 0x2 PUSH1 0x8 SWAP1 SWAP3 MUL ADD ADD SLOAD PUSH1 0x1 PUSH1 0x1 PUSH1 0xA0 SHL SUB AND SUB PUSH2 0x6F0 JUMPI DUP2 PUSH2 0x6EC DUP2 PUSH2 0x1A96 JUMP JUMPDEST SWAP3 POP POP JUMPDEST DUP1 PUSH2 0x6FA DUP2 PUSH2 0x1A96 JUMP JUMPDEST SWAP2 POP POP PUSH2 0x699 JUMP JUMPDEST POP PUSH1 0x0 DUP2 PUSH8 0xFFFFFFFFFFFFFFFF DUP2 GT ISZERO PUSH2 0x71E JUMPI PUSH2 0x71E PUSH2 0x1783 JUMP JUMPDEST PUSH1 0x40 MLOAD SWAP1 DUP1 DUP3 MSTORE DUP1 PUSH1 0x20 MUL PUSH1 0x20 ADD DUP3 ADD PUSH1 0x40 MSTORE DUP1 ISZERO PUSH2 0x7A9 JUMPI DUP2 PUSH1 0x20 ADD JUMPDEST PUSH2 0x796 PUSH1 0x40 MLOAD DUP1 PUSH2 0x100 ADD PUSH1 0x40 MSTORE DUP1 PUSH1 0x0 DUP2 MSTORE PUSH1 0x20 ADD PUSH1 0x0 PUSH1 0x1 PUSH1 0x1 PUSH1 0xA0 SHL SUB AND DUP2 MSTORE PUSH1 0x20 ADD PUSH1 0x0 PUSH1 0x1 PUSH1 0x1 PUSH1 0xA0 SHL SUB AND DUP2 MSTORE PUSH1 0x20 ADD PUSH1 0x60 DUP2 MSTORE PUSH1 0x20 ADD PUSH1 0x0 DUP2 MSTORE PUSH1 0x20 ADD PUSH1 0x60 DUP2 MSTORE PUSH1 0x20 ADD PUSH1 0x60 DUP2 MSTORE PUSH1 0x20 ADD PUSH1 0x0 DUP2 MSTORE POP SWAP1 JUMP JUMPDEST DUP2 MSTORE PUSH1 0x20 ADD SWAP1 PUSH1 0x1 SWAP1 SUB SWAP1 DUP2 PUSH2 0x73C JUMPI SWAP1 POP JUMPDEST POP SWAP1 POP PUSH1 0x0 DUP1 JUMPDEST PUSH1 0x6 SLOAD DUP2 LT ISZERO PUSH2 0xA5F JUMPI DUP6 PUSH1 0x1 PUSH1 0x1 PUSH1 0xA0 SHL SUB AND PUSH1 0x6 DUP3 DUP2 SLOAD DUP2 LT PUSH2 0x7D7 JUMPI PUSH2 0x7D7 PUSH2 0x1A80 JUMP JUMPDEST PUSH1 0x0 SWAP2 DUP3 MSTORE PUSH1 0x20 SWAP1 SWAP2 KECCAK256 PUSH1 0x2 PUSH1 0x8 SWAP1 SWAP3 MUL ADD ADD SLOAD PUSH1 0x1 PUSH1 0x1 PUSH1 0xA0 SHL SUB AND SUB PUSH2 0xA4D JUMPI PUSH1 0x6 DUP2 DUP2 SLOAD DUP2 LT PUSH2 0x80C JUMPI PUSH2 0x80C PUSH2 0x1A80 JUMP JUMPDEST PUSH1 0x0 SWAP2 DUP3 MSTORE PUSH1 0x20 SWAP2 DUP3 SWAP1 KECCAK256 PUSH1 0x40 DUP1 MLOAD PUSH2 0x100 DUP2 ADD DUP3 MSTORE PUSH1 0x8 SWAP1 SWAP4 MUL SWAP1 SWAP2 ADD DUP1 SLOAD DUP4 MSTORE PUSH1 0x1 DUP2 ADD SLOAD PUSH1 0x1 PUSH1 0x1 PUSH1 0xA0 SHL SUB SWAP1 DUP2 AND SWAP5 DUP5 ADD SWAP5 SWAP1 SWAP5 MSTORE PUSH1 0x2 DUP2 ADD SLOAD SWAP1 SWAP4 AND SWAP1 DUP3 ADD MSTORE PUSH1 0x3 DUP3 ADD DUP1 SLOAD SWAP2 SWAP3 SWAP2 PUSH1 0x60 DUP5 ADD SWAP2 SWAP1 PUSH2 0x869 SWAP1 PUSH2 0x18CD JUMP JUMPDEST DUP1 PUSH1 0x1F ADD PUSH1 0x20 DUP1 SWAP2 DIV MUL PUSH1 0x20 ADD PUSH1 0x40 MLOAD SWAP1 DUP2 ADD PUSH1 0x40 MSTORE DUP1 SWAP3 SWAP2 SWAP1 DUP2 DUP2 MSTORE PUSH1 0x20 ADD DUP3 DUP1 SLOAD PUSH2 0x895 SWAP1 PUSH2 0x18CD JUMP JUMPDEST DUP1 ISZERO PUSH2 0x8E2 JUMPI DUP1 PUSH1 0x1F LT PUSH2 0x8B7 JUMPI PUSH2 0x100 DUP1 DUP4 SLOAD DIV MUL DUP4 MSTORE SWAP2 PUSH1 0x20 ADD SWAP2 PUSH2 0x8E2 JUMP JUMPDEST DUP3 ADD SWAP2 SWAP1 PUSH1 0x0 MSTORE PUSH1 0x20 PUSH1 0x0 KECCAK256 SWAP1 JUMPDEST DUP2 SLOAD DUP2 MSTORE SWAP1 PUSH1 0x1 ADD SWAP1 PUSH1 0x20 ADD DUP1 DUP4 GT PUSH2 0x8C5 JUMPI DUP3 SWAP1 SUB PUSH1 0x1F AND DUP3 ADD SWAP2 JUMPDEST POP POP POP POP POP DUP2 MSTORE PUSH1 0x20 ADD PUSH1 0x4 DUP3 ADD SLOAD DUP2 MSTORE PUSH1 0x20 ADD PUSH1 0x5 DUP3 ADD DUP1 SLOAD PUSH2 0x905 SWAP1 PUSH2 0x18CD JUMP JUMPDEST DUP1 PUSH1 0x1F ADD PUSH1 0x20 DUP1 SWAP2 DIV MUL PUSH1 0x20 ADD PUSH1 0x40 MLOAD SWAP1 DUP2 ADD PUSH1 0x40 MSTORE DUP1 SWAP3 SWAP2 SWAP1 DUP2 DUP2 MSTORE PUSH1 0x20 ADD DUP3 DUP1 SLOAD PUSH2 0x931 SWAP1 PUSH2 0x18CD JUMP JUMPDEST DUP1 ISZERO PUSH2 0x97E JUMPI DUP1 PUSH1 0x1F LT PUSH2 0x953 JUMPI PUSH2 0x100 DUP1 DUP4 SLOAD DIV MUL DUP4 MSTORE SWAP2 PUSH1 0x20 ADD SWAP2 PUSH2 0x97E JUMP JUMPDEST DUP3 ADD SWAP2 SWAP1 PUSH1 0x0 MSTORE PUSH1 0x20 PUSH1 0x0 KECCAK256 SWAP1 JUMPDEST DUP2 SLOAD DUP2 MSTORE SWAP1 PUSH1 0x1 ADD SWAP1 PUSH1 0x20 ADD DUP1 DUP4 GT PUSH2 0x961 JUMPI DUP3 SWAP1 SUB PUSH1 0x1F AND DUP3 ADD SWAP2 JUMPDEST POP POP POP POP POP DUP2 MSTORE PUSH1 0x20 ADD PUSH1 0x6 DUP3 ADD DUP1 SLOAD PUSH2 0x997 SWAP1 PUSH2 0x18CD JUMP JUMPDEST DUP1 PUSH1 0x1F ADD PUSH1 0x20 DUP1 SWAP2 DIV MUL PUSH1 0x20 ADD PUSH1 0x40 MLOAD SWAP1 DUP2 ADD PUSH1 0x40 MSTORE DUP1 SWAP3 SWAP2 SWAP1 DUP2 DUP2 MSTORE PUSH1 0x20 ADD DUP3 DUP1 SLOAD PUSH2 0x9C3 SWAP1 PUSH2 0x18CD JUMP JUMPDEST DUP1 ISZERO PUSH2 0xA10 JUMPI DUP1 PUSH1 0x1F LT PUSH2 0x9E5 JUMPI PUSH2 0x100 DUP1 DUP4 SLOAD DIV MUL DUP4 MSTORE SWAP2 PUSH1 0x20 ADD SWAP2 PUSH2 0xA10 JUMP JUMPDEST DUP3 ADD SWAP2 SWAP1 PUSH1 0x0 MSTORE PUSH1 0x20 PUSH1 0x0 KECCAK256 SWAP1 JUMPDEST DUP2 SLOAD DUP2 MSTORE SWAP1 PUSH1 0x1 ADD SWAP1 PUSH1 0x20 ADD DUP1 DUP4 GT PUSH2 0x9F3 JUMPI DUP3 SWAP1 SUB PUSH1 0x1F AND DUP3 ADD SWAP2 JUMPDEST POP POP POP POP POP DUP2 MSTORE PUSH1 0x20 ADD PUSH1 0x7 DUP3 ADD SLOAD DUP2 MSTORE POP POP DUP4 DUP4 DUP1 PUSH2 0xA2F SWAP1 PUSH2 0x1A96 JUMP JUMPDEST SWAP5 POP DUP2 MLOAD DUP2 LT PUSH2 0xA41 JUMPI PUSH2 0xA41 PUSH2 0x1A80 JUMP JUMPDEST PUSH1 0x20 MUL PUSH1 0x20 ADD ADD DUP2 SWAP1 MSTORE POP JUMPDEST DUP1 PUSH2 0xA57 DUP2 PUSH2 0x1A96 JUMP JUMPDEST SWAP2 POP POP PUSH2 0x7B0 JUMP JUMPDEST POP SWAP1 SWAP5 SWAP4 POP POP POP POP JUMP JUMPDEST PUSH1 0x1 PUSH1 0x1 PUSH1 0xA0 SHL SUB DUP2 AND PUSH1 0x0 SWAP1 DUP2 MSTORE PUSH1 0x1 PUSH1 0x20 SWAP1 DUP2 MSTORE PUSH1 0x40 DUP1 DUP4 KECCAK256 DUP1 SLOAD DUP3 MLOAD DUP2 DUP6 MUL DUP2 ADD DUP6 ADD SWAP1 SWAP4 MSTORE DUP1 DUP4 MSTORE PUSH1 0x60 SWAP5 SWAP3 SWAP4 SWAP2 SWAP3 SWAP1 SWAP2 DUP5 ADD JUMPDEST DUP3 DUP3 LT ISZERO PUSH2 0x688 JUMPI PUSH1 0x0 DUP5 DUP2 MSTORE PUSH1 0x20 SWAP1 DUP2 SWAP1 KECCAK256 PUSH1 0x40 DUP1 MLOAD PUSH1 0x80 DUP2 ADD SWAP1 SWAP2 MSTORE PUSH1 0x4 DUP6 MUL SWAP1 SWAP2 ADD DUP1 SLOAD PUSH1 0x1 PUSH1 0x1 PUSH1 0xA0 SHL SUB AND DUP3 MSTORE PUSH1 0x1 DUP2 ADD DUP1 SLOAD SWAP3 SWAP4 SWAP2 SWAP3 SWAP2 DUP5 ADD SWAP2 PUSH2 0xAEA SWAP1 PUSH2 0x18CD JUMP JUMPDEST DUP1 PUSH1 0x1F ADD PUSH1 0x20 DUP1 SWAP2 DIV MUL PUSH1 0x20 ADD PUSH1 0x40 MLOAD SWAP1 DUP2 ADD PUSH1 0x40 MSTORE DUP1 SWAP3 SWAP2 SWAP1 DUP2 DUP2 MSTORE PUSH1 0x20 ADD DUP3 DUP1 SLOAD PUSH2 0xB16 SWAP1 PUSH2 0x18CD JUMP JUMPDEST DUP1 ISZERO PUSH2 0xB63 JUMPI DUP1 PUSH1 0x1F LT PUSH2 0xB38 JUMPI PUSH2 0x100 DUP1 DUP4 SLOAD DIV MUL DUP4 MSTORE SWAP2 PUSH1 0x20 ADD SWAP2 PUSH2 0xB63 JUMP JUMPDEST DUP3 ADD SWAP2 SWAP1 PUSH1 0x0 MSTORE PUSH1 0x20 PUSH1 0x0 KECCAK256 SWAP1 JUMPDEST DUP2 SLOAD DUP2 MSTORE SWAP1 PUSH1 0x1 ADD SWAP1 PUSH1 0x20 ADD DUP1 DUP4 GT PUSH2 0xB46 JUMPI DUP3 SWAP1 SUB PUSH1 0x1F AND DUP3 ADD SWAP2 JUMPDEST POP POP POP POP POP DUP2 MSTORE PUSH1 0x20 ADD PUSH1 0x2 DUP3 ADD DUP1 SLOAD PUSH2 0xB7C SWAP1 PUSH2 0x18CD JUMP JUMPDEST DUP1 PUSH1 0x1F ADD PUSH1 0x20 DUP1 SWAP2 DIV MUL PUSH1 0x20 ADD PUSH1 0x40 MLOAD SWAP1 DUP2 ADD PUSH1 0x40 MSTORE DUP1 SWAP3 SWAP2 SWAP1 DUP2 DUP2 MSTORE PUSH1 0x20 ADD DUP3 DUP1 SLOAD PUSH2 0xBA8 SWAP1 PUSH2 0x18CD JUMP JUMPDEST DUP1 ISZERO PUSH2 0xBF5 JUMPI DUP1 PUSH1 0x1F LT PUSH2 0xBCA JUMPI PUSH2 0x100 DUP1 DUP4 SLOAD DIV MUL DUP4 MSTORE SWAP2 PUSH1 0x20 ADD SWAP2 PUSH2 0xBF5 JUMP JUMPDEST DUP3 ADD SWAP2 SWAP1 PUSH1 0x0 MSTORE PUSH1 0x20 PUSH1 0x0 KECCAK256 SWAP1 JUMPDEST DUP2 SLOAD DUP2 MSTORE SWAP1 PUSH1 0x1 ADD SWAP1 PUSH1 0x20 ADD DUP1 DUP4 GT PUSH2 0xBD8 JUMPI DUP3 SWAP1 SUB PUSH1 0x1F AND DUP3 ADD SWAP2 JUMPDEST POP POP POP POP POP DUP2 MSTORE PUSH1 0x20 ADD PUSH1 0x3 DUP3 ADD SLOAD DUP2 MSTORE POP POP DUP2 MSTORE PUSH1 0x20 ADD SWAP1 PUSH1 0x1 ADD SWAP1 PUSH2 0xAA1 JUMP JUMPDEST CALLER PUSH1 0x0 DUP2 DUP2 MSTORE PUSH1 0x2 PUSH1 0x20 SWAP1 DUP2 MSTORE PUSH1 0x40 DUP1 DUP4 KECCAK256 PUSH1 0x1 PUSH1 0x1 PUSH1 0xA0 SHL SUB DUP7 AND DUP1 DUP6 MSTORE SWAP3 MSTORE DUP1 DUP4 KECCAK256 DUP1 SLOAD PUSH1 0xFF NOT AND PUSH1 0x1 OR SWAP1 SSTORE MLOAD SWAP1 SWAP3 SWAP2 PUSH32 0x9F520B3BFC56D06F7065D10B4683B3F57AC8895D5026CD176DEE95CE1454CB8D SWAP2 LOG3 POP JUMP JUMPDEST CALLER PUSH1 0x0 SWAP1 DUP2 MSTORE PUSH1 0x4 PUSH1 0x20 MSTORE PUSH1 0x40 SWAP1 KECCAK256 SLOAD PUSH1 0xFF AND PUSH2 0xCBD JUMPI PUSH1 0x40 MLOAD PUSH3 0x461BCD PUSH1 0xE5 SHL DUP2 MSTORE PUSH1 0x20 PUSH1 0x4 DUP3 ADD MSTORE PUSH1 0xB PUSH1 0x24 DUP3 ADD MSTORE PUSH11 0x2737BA1034B739BAB932B9 PUSH1 0xA9 SHL PUSH1 0x44 DUP3 ADD MSTORE PUSH1 0x64 ADD PUSH2 0x36D JUMP JUMPDEST PUSH1 0x6 SLOAD DUP6 LT PUSH2 0xCFE JUMPI PUSH1 0x40 MLOAD PUSH3 0x461BCD PUSH1 0xE5 SHL DUP2 MSTORE PUSH1 0x20 PUSH1 0x4 DUP3 ADD MSTORE PUSH1 0xD PUSH1 0x24 DUP3 ADD MSTORE PUSH13 0x496E76616C696420636C61696D PUSH1 0x98 SHL PUSH1 0x44 DUP3 ADD MSTORE PUSH1 0x64 ADD PUSH2 0x36D JUMP JUMPDEST PUSH1 0x0 PUSH1 0x6 DUP7 DUP2 SLOAD DUP2 LT PUSH2 0xD13 JUMPI PUSH2 0xD13 PUSH2 0x1A80 JUMP JUMPDEST PUSH1 0x0 SWAP2 DUP3 MSTORE PUSH1 0x20 SWAP1 SWAP2 KECCAK256 PUSH1 0x1 PUSH1 0x8 SWAP1 SWAP3 MUL ADD SWAP1 DUP2 ADD SLOAD SWAP1 SWAP2 POP PUSH1 0x1 PUSH1 0x1 PUSH1 0xA0 SHL SUB AND CALLER EQ PUSH2 0xD72 JUMPI PUSH1 0x40 MLOAD PUSH3 0x461BCD PUSH1 0xE5 SHL DUP2 MSTORE PUSH1 0x20 PUSH1 0x4 DUP3 ADD MSTORE PUSH1 0xC PUSH1 0x24 DUP3 ADD MSTORE PUSH12 0x27B7363C9034B739BAB932B9 PUSH1 0xA1 SHL PUSH1 0x44 DUP3 ADD MSTORE PUSH1 0x64 ADD PUSH2 0x36D JUMP JUMPDEST PUSH1 0x5 DUP2 ADD PUSH2 0xD81 DUP6 DUP8 DUP4 PUSH2 0x1ABD JUMP JUMPDEST POP PUSH1 0x6 DUP2 ADD PUSH2 0xD91 DUP4 DUP6 DUP4 PUSH2 0x1ABD JUMP JUMPDEST POP DUP6 PUSH32 0x352338C0A745EB7B4FFE245489A99B3E7CFFE44DDCF8A9A10561B904E5FF5BC DUP7 DUP7 DUP7 DUP7 PUSH1 0x40 MLOAD PUSH2 0xDC8 SWAP5 SWAP4 SWAP3 SWAP2 SWAP1 PUSH2 0x1B7E JUMP JUMPDEST PUSH1 0x40 MLOAD DUP1 SWAP2 SUB SWAP1 LOG2 POP POP POP POP POP POP JUMP JUMPDEST CALLER PUSH1 0x0 SWAP1 DUP2 MSTORE PUSH1 0x3 PUSH1 0x20 MSTORE PUSH1 0x40 SWAP1 KECCAK256 SLOAD PUSH1 0xFF AND PUSH2 0xE26 JUMPI PUSH1 0x40 MLOAD PUSH3 0x461BCD PUSH1 0xE5 SHL DUP2 MSTORE PUSH1 0x20 PUSH1 0x4 DUP3 ADD MSTORE PUSH1 0xC PUSH1 0x24 DUP3 ADD MSTORE PUSH12 0x4E6F7420706861726D616379 PUSH1 0xA0 SHL PUSH1 0x44 DUP3 ADD MSTORE PUSH1 0x64 ADD PUSH2 0x36D JUMP JUMPDEST PUSH1 0x0 PUSH1 0x40 MLOAD DUP1 PUSH1 0x80 ADD PUSH1 0x40 MSTORE DUP1 CALLER PUSH1 0x1 PUSH1 0x1 PUSH1 0xA0 SHL SUB AND DUP2 MSTORE PUSH1 0x20 ADD DUP6 PUSH1 0x1 PUSH1 0x1 PUSH1 0xA0 SHL SUB AND DUP2 MSTORE PUSH1 0x20 ADD DUP5 DUP5 DUP1 DUP1 PUSH1 0x1F ADD PUSH1 0x20 DUP1 SWAP2 DIV MUL PUSH1 0x20 ADD PUSH1 0x40 MLOAD SWAP1 DUP2 ADD PUSH1 0x40 MSTORE DUP1 SWAP4 SWAP3 SWAP2 SWAP1 DUP2 DUP2 MSTORE PUSH1 0x20 ADD DUP4 DUP4 DUP1 DUP3 DUP5 CALLDATACOPY PUSH1 0x0 SWAP3 ADD DUP3 SWAP1 MSTORE POP SWAP4 DUP6 MSTORE POP POP TIMESTAMP PUSH1 0x20 SWAP4 DUP5 ADD MSTORE POP PUSH1 0x1 PUSH1 0x1 PUSH1 0xA0 SHL SUB DUP1 DUP9 AND DUP3 MSTORE PUSH1 0x5 DUP4 MSTORE PUSH1 0x40 DUP1 DUP4 KECCAK256 DUP1 SLOAD PUSH1 0x1 DUP2 DUP2 ADD DUP4 SSTORE SWAP2 DUP6 MSTORE SWAP4 DUP6 SWAP1 KECCAK256 DUP7 MLOAD PUSH1 0x4 SWAP1 SWAP6 MUL ADD DUP1 SLOAD SWAP5 DUP5 AND PUSH1 0x1 PUSH1 0x1 PUSH1 0xA0 SHL SUB NOT SWAP6 DUP7 AND OR DUP2 SSTORE SWAP5 DUP7 ADD MLOAD SWAP1 DUP6 ADD DUP1 SLOAD SWAP2 SWAP1 SWAP4 AND SWAP4 AND SWAP3 SWAP1 SWAP3 OR SWAP1 SSTORE DUP3 ADD MLOAD SWAP2 SWAP3 POP DUP3 SWAP2 PUSH1 0x2 DUP3 ADD SWAP1 PUSH2 0xEFE SWAP1 DUP3 PUSH2 0x1956 JUMP JUMPDEST POP PUSH1 0x60 DUP3 ADD MLOAD DUP2 PUSH1 0x3 ADD SSTORE POP POP DUP4 PUSH1 0x1 PUSH1 0x1 PUSH1 0xA0 SHL SUB AND CALLER PUSH1 0x1 PUSH1 0x1 PUSH1 0xA0 SHL SUB AND PUSH32 0x4F7068636B4E2F3B8508718963A5D0A3AE08F55A6CD98C115E95A4D453505F97 DUP6 DUP6 TIMESTAMP PUSH1 0x40 MLOAD PUSH2 0xF52 SWAP4 SWAP3 SWAP2 SWAP1 PUSH2 0x1BB0 JUMP JUMPDEST PUSH1 0x40 MLOAD DUP1 SWAP2 SUB SWAP1 LOG3 POP POP POP POP JUMP JUMPDEST PUSH1 0x60 CALLER PUSH1 0x1 PUSH1 0x1 PUSH1 0xA0 SHL SUB DUP4 AND EQ DUP1 PUSH2 0xF9C JUMPI POP PUSH1 0x1 PUSH1 0x1 PUSH1 0xA0 SHL SUB DUP3 AND PUSH1 0x0 SWAP1 DUP2 MSTORE PUSH1 0x2 PUSH1 0x20 SWAP1 DUP2 MSTORE PUSH1 0x40 DUP1 DUP4 KECCAK256 CALLER DUP5 MSTORE SWAP1 SWAP2 MSTORE SWAP1 KECCAK256 SLOAD PUSH1 0xFF AND JUMPDEST PUSH2 0xFD9 JUMPI PUSH1 0x40 MLOAD PUSH3 0x461BCD PUSH1 0xE5 SHL DUP2 MSTORE PUSH1 0x20 PUSH1 0x4 DUP3 ADD MSTORE PUSH1 0xE PUSH1 0x24 DUP3 ADD MSTORE PUSH14 0x139BDD08185D5D1A1BDC9A5E9959 PUSH1 0x92 SHL PUSH1 0x44 DUP3 ADD MSTORE PUSH1 0x64 ADD PUSH2 0x36D JUMP JUMPDEST PUSH1 0x1 PUSH1 0x1 PUSH1 0xA0 SHL SUB DUP3 AND PUSH1 0x0 SWAP1 DUP2 MSTORE PUSH1 0x1 PUSH1 0x20 SWAP1 DUP2 MSTORE PUSH1 0x40 DUP1 DUP4 KECCAK256 DUP1 SLOAD DUP3 MLOAD DUP2 DUP6 MUL DUP2 ADD DUP6 ADD SWAP1 SWAP4 MSTORE DUP1 DUP4 MSTORE SWAP2 SWAP4 SWAP1 SWAP3 DUP5 ADD JUMPDEST DUP3 DUP3 LT ISZERO PUSH2 0x688 JUMPI PUSH1 0x0 DUP5 DUP2 MSTORE PUSH1 0x20 SWAP1 DUP2 SWAP1 KECCAK256 PUSH1 0x40 DUP1 MLOAD PUSH1 0x80 DUP2 ADD SWAP1 SWAP2 MSTORE PUSH1 0x4 DUP6 MUL SWAP1 SWAP2 ADD DUP1 SLOAD PUSH1 0x1 PUSH1 0x1 PUSH1 0xA0 SHL SUB AND DUP3 MSTORE PUSH1 0x1 DUP2 ADD DUP1 SLOAD SWAP3 SWAP4 SWAP2 SWAP3 SWAP2 DUP5 ADD SWAP2 PUSH2 0x1055 SWAP1 PUSH2 0x18CD JUMP JUMPDEST DUP1 PUSH1 0x1F ADD PUSH1 0x20 DUP1 SWAP2 DIV MUL PUSH1 0x20 ADD PUSH1 0x40 MLOAD SWAP1 DUP2 ADD PUSH1 0x40 MSTORE DUP1 SWAP3 SWAP2 SWAP1 DUP2 DUP2 MSTORE PUSH1 0x20 ADD DUP3 DUP1 SLOAD PUSH2 0x1081 SWAP1 PUSH2 0x18CD JUMP JUMPDEST DUP1 ISZERO PUSH2 0x10CE JUMPI DUP1 PUSH1 0x1F LT PUSH2 0x10A3 JUMPI PUSH2 0x100 DUP1 DUP4 SLOAD DIV MUL DUP4 MSTORE SWAP2 PUSH1 0x20 ADD SWAP2 PUSH2 0x10CE JUMP JUMPDEST DUP3 ADD SWAP2 SWAP1 PUSH1 0x0 MSTORE PUSH1 0x20 PUSH1 0x0 KECCAK256 SWAP1 JUMPDEST DUP2 SLOAD DUP2 MSTORE SWAP1 PUSH1 0x1 ADD SWAP1 PUSH1 0x20 ADD DUP1 DUP4 GT PUSH2 0x10B1 JUMPI DUP3 SWAP1 SUB PUSH1 0x1F AND DUP3 ADD SWAP2 JUMPDEST POP POP POP POP POP DUP2 MSTORE PUSH1 0x20 ADD PUSH1 0x2 DUP3 ADD DUP1 SLOAD PUSH2 0x10E7 SWAP1 PUSH2 0x18CD JUMP JUMPDEST DUP1 PUSH1 0x1F ADD PUSH1 0x20 DUP1 SWAP2 DIV MUL PUSH1 0x20 ADD PUSH1 0x40 MLOAD SWAP1 DUP2 ADD PUSH1 0x40 MSTORE DUP1 SWAP3 SWAP2 SWAP1 DUP2 DUP2 MSTORE PUSH1 0x20 ADD DUP3 DUP1 SLOAD PUSH2 0x1113 SWAP1 PUSH2 0x18CD JUMP JUMPDEST DUP1 ISZERO PUSH2 0x1160 JUMPI DUP1 PUSH1 0x1F LT PUSH2 0x1135 JUMPI PUSH2 0x100 DUP1 DUP4 SLOAD DIV MUL DUP4 MSTORE SWAP2 PUSH1 0x20 ADD SWAP2 PUSH2 0x1160 JUMP JUMPDEST DUP3 ADD SWAP2 SWAP1 PUSH1 0x0 MSTORE PUSH1 0x20 PUSH1 0x0 KECCAK256 SWAP1 JUMPDEST DUP2 SLOAD DUP2 MSTORE SWAP1 PUSH1 0x1 ADD SWAP1 PUSH1 0x20 ADD DUP1 DUP4 GT PUSH2 0x1143 JUMPI DUP3 SWAP1 SUB PUSH1 0x1F AND DUP3 ADD SWAP2 JUMPDEST POP POP POP POP POP DUP2 MSTORE PUSH1 0x20 ADD PUSH1 0x3 DUP3 ADD SLOAD DUP2 MSTORE POP POP DUP2 MSTORE PUSH1 0x20 ADD SWAP1 PUSH1 0x1 ADD SWAP1 PUSH2 0x100C JUMP JUMPDEST CALLER PUSH1 0x0 DUP2 DUP2 MSTORE PUSH1 0x4 PUSH1 0x20 MSTORE PUSH1 0x40 DUP1 DUP3 KECCAK256 DUP1 SLOAD PUSH1 0xFF NOT AND PUSH1 0x1 OR SWAP1 SSTORE MLOAD PUSH32 0x25FB9F4C94FB71107EBC226956D9FA5848C48E1A66EC8A02D3E74EB6DB60F936 SWAP2 SWAP1 LOG2 JUMP JUMPDEST PUSH1 0x40 DUP1 MLOAD PUSH1 0x80 DUP2 ADD DUP3 MSTORE PUSH1 0x1 PUSH1 0x1 PUSH1 0xA0 SHL SUB DUP6 DUP2 AND DUP1 DUP4 MSTORE PUSH1 0x20 DUP1 DUP5 ADD DUP8 DUP2 MSTORE DUP5 DUP7 ADD DUP8 SWAP1 MSTORE TIMESTAMP PUSH1 0x60 DUP7 ADD MSTORE PUSH1 0x0 SWAP3 DUP4 MSTORE PUSH1 0x1 DUP1 DUP4 MSTORE SWAP6 DUP4 KECCAK256 DUP1 SLOAD DUP1 DUP9 ADD DUP3 SSTORE SWAP1 DUP5 MSTORE SWAP2 SWAP1 SWAP3 KECCAK256 DUP5 MLOAD PUSH1 0x4 SWAP1 SWAP3 MUL ADD DUP1 SLOAD PUSH1 0x1 PUSH1 0x1 PUSH1 0xA0 SHL SUB NOT AND SWAP2 SWAP1 SWAP4 AND OR DUP3 SSTORE MLOAD SWAP2 SWAP3 DUP4 SWAP3 SWAP1 DUP3 ADD SWAP1 PUSH2 0x1239 SWAP1 DUP3 PUSH2 0x1956 JUMP JUMPDEST POP PUSH1 0x40 DUP3 ADD MLOAD PUSH1 0x2 DUP3 ADD SWAP1 PUSH2 0x124E SWAP1 DUP3 PUSH2 0x1956 JUMP JUMPDEST POP PUSH1 0x60 SWAP2 SWAP1 SWAP2 ADD MLOAD PUSH1 0x3 SWAP1 SWAP2 ADD SSTORE PUSH1 0x0 DUP1 SLOAD PUSH1 0x1 DUP2 ADD DUP3 SSTORE SWAP1 DUP1 MSTORE DUP2 MLOAD PUSH32 0x290DECD9548B62A8D60345A988386FC84BA6BC95484008F6362F93160EF3E563 PUSH1 0x4 SWAP1 SWAP3 MUL SWAP2 DUP3 ADD DUP1 SLOAD PUSH1 0x1 PUSH1 0x1 PUSH1 0xA0 SHL SUB NOT AND PUSH1 0x1 PUSH1 0x1 PUSH1 0xA0 SHL SUB SWAP1 SWAP3 AND SWAP2 SWAP1 SWAP2 OR DUP2 SSTORE PUSH1 0x20 DUP4 ADD MLOAD DUP4 SWAP3 PUSH32 0x290DECD9548B62A8D60345A988386FC84BA6BC95484008F6362F93160EF3E564 ADD SWAP1 PUSH2 0x12E5 SWAP1 DUP3 PUSH2 0x1956 JUMP JUMPDEST POP PUSH1 0x40 DUP3 ADD MLOAD PUSH1 0x2 DUP3 ADD SWAP1 PUSH2 0x12FA SWAP1 DUP3 PUSH2 0x1956 JUMP JUMPDEST POP PUSH1 0x60 DUP3 ADD MLOAD DUP2 PUSH1 0x3 ADD SSTORE POP POP DUP4 PUSH1 0x1 PUSH1 0x1 PUSH1 0xA0 SHL SUB AND PUSH32 0x2F476D5C183B5F6DB52B986731F160DE20D40D82C9F688C3D78442A090A4FEA8 DUP5 DUP5 TIMESTAMP PUSH1 0x40 MLOAD PUSH2 0x1344 SWAP4 SWAP3 SWAP2 SWAP1 PUSH2 0x1BD4 JUMP JUMPDEST PUSH1 0x40 MLOAD DUP1 SWAP2 SUB SWAP1 LOG2 POP POP POP POP JUMP JUMPDEST DUP1 CALLDATALOAD PUSH1 0x1 PUSH1 0x1 PUSH1 0xA0 SHL SUB DUP2 AND DUP2 EQ PUSH2 0x1369 JUMPI PUSH1 0x0 DUP1 REVERT JUMPDEST SWAP2 SWAP1 POP JUMP JUMPDEST PUSH1 0x0 PUSH1 0x20 DUP3 DUP5 SUB SLT ISZERO PUSH2 0x1380 JUMPI PUSH1 0x0 DUP1 REVERT JUMPDEST PUSH2 0x1389 DUP3 PUSH2 0x1352 JUMP JUMPDEST SWAP4 SWAP3 POP POP POP JUMP JUMPDEST PUSH1 0x0 DUP1 DUP4 PUSH1 0x1F DUP5 ADD SLT PUSH2 0x13A2 JUMPI PUSH1 0x0 DUP1 REVERT JUMPDEST POP DUP2 CALLDATALOAD PUSH8 0xFFFFFFFFFFFFFFFF DUP2 GT ISZERO PUSH2 0x13BA JUMPI PUSH1 0x0 DUP1 REVERT JUMPDEST PUSH1 0x20 DUP4 ADD SWAP2 POP DUP4 PUSH1 0x20 DUP3 DUP6 ADD ADD GT ISZERO PUSH2 0x13D2 JUMPI PUSH1 0x0 DUP1 REVERT JUMPDEST SWAP3 POP SWAP3 SWAP1 POP JUMP JUMPDEST PUSH1 0x0 DUP1 PUSH1 0x0 DUP1 PUSH1 0x0 DUP1 PUSH1 0x80 DUP8 DUP10 SUB SLT ISZERO PUSH2 0x13F2 JUMPI PUSH1 0x0 DUP1 REVERT JUMPDEST PUSH2 0x13FB DUP8 PUSH2 0x1352 JUMP JUMPDEST SWAP6 POP PUSH1 0x20 DUP8 ADD CALLDATALOAD PUSH8 0xFFFFFFFFFFFFFFFF DUP1 DUP3 GT ISZERO PUSH2 0x1418 JUMPI PUSH1 0x0 DUP1 REVERT JUMPDEST PUSH2 0x1424 DUP11 DUP4 DUP12 ADD PUSH2 0x1390 JUMP JUMPDEST SWAP1 SWAP8 POP SWAP6 POP PUSH1 0x40 DUP10 ADD CALLDATALOAD SWAP5 POP PUSH1 0x60 DUP10 ADD CALLDATALOAD SWAP2 POP DUP1 DUP3 GT ISZERO PUSH2 0x1444 JUMPI PUSH1 0x0 DUP1 REVERT JUMPDEST POP PUSH2 0x1451 DUP10 DUP3 DUP11 ADD PUSH2 0x1390 JUMP JUMPDEST SWAP8 SWAP11 SWAP7 SWAP10 POP SWAP5 SWAP8 POP SWAP3 SWAP6 SWAP4 SWAP5 SWAP3 POP POP POP JUMP JUMPDEST PUSH1 0x0 DUP2 MLOAD DUP1 DUP5 MSTORE PUSH1 0x0 JUMPDEST DUP2 DUP2 LT ISZERO PUSH2 0x1489 JUMPI PUSH1 0x20 DUP2 DUP6 ADD DUP2 ADD MLOAD DUP7 DUP4 ADD DUP3 ADD MSTORE ADD PUSH2 0x146D JUMP JUMPDEST POP PUSH1 0x0 PUSH1 0x20 DUP3 DUP7 ADD ADD MSTORE PUSH1 0x20 PUSH1 0x1F NOT PUSH1 0x1F DUP4 ADD AND DUP6 ADD ADD SWAP2 POP POP SWAP3 SWAP2 POP POP JUMP JUMPDEST PUSH1 0x0 PUSH1 0x20 DUP1 DUP4 ADD DUP2 DUP5 MSTORE DUP1 DUP6 MLOAD DUP1 DUP4 MSTORE PUSH1 0x40 SWAP3 POP DUP3 DUP7 ADD SWAP2 POP DUP3 DUP2 PUSH1 0x5 SHL DUP8 ADD ADD DUP5 DUP9 ADD PUSH1 0x0 JUMPDEST DUP4 DUP2 LT ISZERO PUSH2 0x1535 JUMPI DUP9 DUP4 SUB PUSH1 0x3F NOT ADD DUP6 MSTORE DUP2 MLOAD DUP1 MLOAD PUSH1 0x1 PUSH1 0x1 PUSH1 0xA0 SHL SUB SWAP1 DUP2 AND DUP6 MSTORE DUP9 DUP3 ADD MLOAD AND DUP9 DUP6 ADD MSTORE DUP7 DUP2 ADD MLOAD PUSH1 0x80 DUP9 DUP7 ADD DUP2 SWAP1 MSTORE SWAP1 PUSH2 0x1514 DUP3 DUP8 ADD DUP3 PUSH2 0x1463 JUMP JUMPDEST PUSH1 0x60 SWAP4 DUP5 ADD MLOAD SWAP7 SWAP1 SWAP4 ADD SWAP6 SWAP1 SWAP6 MSTORE POP SWAP5 DUP8 ADD SWAP5 SWAP3 POP SWAP1 DUP7 ADD SWAP1 PUSH1 0x1 ADD PUSH2 0x14D0 JUMP JUMPDEST POP SWAP1 SWAP9 SWAP8 POP POP POP POP POP POP POP POP JUMP JUMPDEST PUSH1 0x0 PUSH1 0x20 DUP1 DUP4 ADD DUP2 DUP5 MSTORE DUP1 DUP6 MLOAD DUP1 DUP4 MSTORE PUSH1 0x40 SWAP3 POP DUP3 DUP7 ADD SWAP2 POP DUP3 DUP2 PUSH1 0x5 SHL DUP8 ADD ADD DUP5 DUP9 ADD PUSH1 0x0 JUMPDEST DUP4 DUP2 LT ISZERO PUSH2 0x1535 JUMPI PUSH1 0x3F NOT DUP10 DUP5 SUB ADD DUP6 MSTORE DUP2 MLOAD DUP1 MLOAD DUP5 MSTORE DUP8 DUP2 ADD MLOAD PUSH1 0x1 PUSH1 0x1 PUSH1 0xA0 SHL SUB SWAP1 DUP2 AND DUP10 DUP7 ADD MSTORE DUP8 DUP3 ADD MLOAD AND DUP8 DUP6 ADD MSTORE PUSH1 0x60 DUP1 DUP3 ADD MLOAD PUSH2 0x100 DUP3 DUP8 ADD DUP2 SWAP1 MSTORE SWAP2 SWAP1 PUSH2 0x15BA DUP4 DUP9 ADD DUP3 PUSH2 0x1463 JUMP JUMPDEST SWAP3 POP POP POP PUSH1 0x80 DUP1 DUP4 ADD MLOAD DUP2 DUP8 ADD MSTORE POP PUSH1 0xA0 DUP1 DUP4 ADD MLOAD DUP7 DUP4 SUB DUP3 DUP9 ADD MSTORE PUSH2 0x15E0 DUP4 DUP3 PUSH2 0x1463 JUMP JUMPDEST SWAP3 POP POP POP PUSH1 0xC0 DUP1 DUP4 ADD MLOAD DUP7 DUP4 SUB DUP3 DUP9 ADD MSTORE PUSH2 0x15FB DUP4 DUP3 PUSH2 0x1463 JUMP JUMPDEST PUSH1 0xE0 SWAP5 DUP6 ADD MLOAD SWAP8 SWAP1 SWAP5 ADD SWAP7 SWAP1 SWAP7 MSTORE POP POP SWAP5 DUP8 ADD SWAP5 SWAP3 POP SWAP1 DUP7 ADD SWAP1 PUSH1 0x1 ADD PUSH2 0x156A JUMP JUMPDEST PUSH1 0x0 PUSH1 0x20 DUP1 DUP4 ADD DUP2 DUP5 MSTORE DUP1 DUP6 MLOAD DUP1 DUP4 MSTORE PUSH1 0x40 SWAP3 POP DUP3 DUP7 ADD SWAP2 POP DUP3 DUP2 PUSH1 0x5 SHL DUP8 ADD ADD DUP5 DUP9 ADD PUSH1 0x0 JUMPDEST DUP4 DUP2 LT ISZERO PUSH2 0x1535 JUMPI DUP9 DUP4 SUB PUSH1 0x3F NOT ADD DUP6 MSTORE DUP2 MLOAD DUP1 MLOAD PUSH1 0x1 PUSH1 0x1 PUSH1 0xA0 SHL SUB AND DUP5 MSTORE DUP8 DUP2 ADD MLOAD PUSH1 0x80 DUP10 DUP7 ADD DUP2 SWAP1 MSTORE SWAP1 PUSH2 0x167D DUP3 DUP8 ADD DUP3 PUSH2 0x1463 JUMP JUMPDEST SWAP2 POP POP DUP8 DUP3 ADD MLOAD DUP6 DUP3 SUB DUP10 DUP8 ADD MSTORE PUSH2 0x1695 DUP3 DUP3 PUSH2 0x1463 JUMP JUMPDEST PUSH1 0x60 SWAP4 DUP5 ADD MLOAD SWAP7 SWAP1 SWAP4 ADD SWAP6 SWAP1 SWAP6 MSTORE POP SWAP5 DUP8 ADD SWAP5 SWAP3 POP SWAP1 DUP7 ADD SWAP1 PUSH1 0x1 ADD PUSH2 0x1644 JUMP JUMPDEST PUSH1 0x0 DUP1 PUSH1 0x0 DUP1 PUSH1 0x0 PUSH1 0x60 DUP7 DUP9 SUB SLT ISZERO PUSH2 0x16CE JUMPI PUSH1 0x0 DUP1 REVERT JUMPDEST DUP6 CALLDATALOAD SWAP5 POP PUSH1 0x20 DUP7 ADD CALLDATALOAD PUSH8 0xFFFFFFFFFFFFFFFF DUP1 DUP3 GT ISZERO PUSH2 0x16ED JUMPI PUSH1 0x0 DUP1 REVERT JUMPDEST PUSH2 0x16F9 DUP10 DUP4 DUP11 ADD PUSH2 0x1390 JUMP JUMPDEST SWAP1 SWAP7 POP SWAP5 POP PUSH1 0x40 DUP9 ADD CALLDATALOAD SWAP2 POP DUP1 DUP3 GT ISZERO PUSH2 0x1712 JUMPI PUSH1 0x0 DUP1 REVERT JUMPDEST POP PUSH2 0x171F DUP9 DUP3 DUP10 ADD PUSH2 0x1390 JUMP JUMPDEST SWAP7 SWAP10 SWAP6 SWAP9 POP SWAP4 SWAP7 POP SWAP3 SWAP5 SWAP4 SWAP3 POP POP POP JUMP JUMPDEST PUSH1 0x0 DUP1 PUSH1 0x0 PUSH1 0x40 DUP5 DUP7 SUB SLT ISZERO PUSH2 0x1745 JUMPI PUSH1 0x0 DUP1 REVERT JUMPDEST PUSH2 0x174E DUP5 PUSH2 0x1352 JUMP JUMPDEST SWAP3 POP PUSH1 0x20 DUP5 ADD CALLDATALOAD PUSH8 0xFFFFFFFFFFFFFFFF DUP2 GT ISZERO PUSH2 0x176A JUMPI PUSH1 0x0 DUP1 REVERT JUMPDEST PUSH2 0x1776 DUP7 DUP3 DUP8 ADD PUSH2 0x1390 JUMP JUMPDEST SWAP5 SWAP8 SWAP1 SWAP7 POP SWAP4 SWAP5 POP POP POP POP JUMP JUMPDEST PUSH4 0x4E487B71 PUSH1 0xE0 SHL PUSH1 0x0 MSTORE PUSH1 0x41 PUSH1 0x4 MSTORE PUSH1 0x24 PUSH1 0x0 REVERT JUMPDEST PUSH1 0x0 DUP3 PUSH1 0x1F DUP4 ADD SLT PUSH2 0x17AA JUMPI PUSH1 0x0 DUP1 REVERT JUMPDEST DUP2 CALLDATALOAD PUSH8 0xFFFFFFFFFFFFFFFF DUP1 DUP3 GT ISZERO PUSH2 0x17C5 JUMPI PUSH2 0x17C5 PUSH2 0x1783 JUMP JUMPDEST PUSH1 0x40 MLOAD PUSH1 0x1F DUP4 ADD PUSH1 0x1F NOT SWAP1 DUP2 AND PUSH1 0x3F ADD AND DUP2 ADD SWAP1 DUP3 DUP3 GT DUP2 DUP4 LT OR ISZERO PUSH2 0x17ED JUMPI PUSH2 0x17ED PUSH2 0x1783 JUMP JUMPDEST DUP2 PUSH1 0x40 MSTORE DUP4 DUP2 MSTORE DUP7 PUSH1 0x20 DUP6 DUP9 ADD ADD GT ISZERO PUSH2 0x1806 JUMPI PUSH1 0x0 DUP1 REVERT JUMPDEST DUP4 PUSH1 0x20 DUP8 ADD PUSH1 0x20 DUP4 ADD CALLDATACOPY PUSH1 0x0 PUSH1 0x20 DUP6 DUP4 ADD ADD MSTORE DUP1 SWAP5 POP POP POP POP POP SWAP3 SWAP2 POP POP JUMP JUMPDEST PUSH1 0x0 DUP1 PUSH1 0x0 PUSH1 0x60 DUP5 DUP7 SUB SLT ISZERO PUSH2 0x183B JUMPI PUSH1 0x0 DUP1 REVERT JUMPDEST PUSH2 0x1844 DUP5 PUSH2 0x1352 JUMP JUMPDEST SWAP3 POP PUSH1 0x20 DUP5 ADD CALLDATALOAD PUSH8 0xFFFFFFFFFFFFFFFF DUP1 DUP3 GT ISZERO PUSH2 0x1861 JUMPI PUSH1 0x0 DUP1 REVERT JUMPDEST PUSH2 0x186D DUP8 DUP4 DUP9 ADD PUSH2 0x1799 JUMP JUMPDEST SWAP4 POP PUSH1 0x40 DUP7 ADD CALLDATALOAD SWAP2 POP DUP1 DUP3 GT ISZERO PUSH2 0x1883 JUMPI PUSH1 0x0 DUP1 REVERT JUMPDEST POP PUSH2 0x1890 DUP7 DUP3 DUP8 ADD PUSH2 0x1799 JUMP JUMPDEST SWAP2 POP POP SWAP3 POP SWAP3 POP SWAP3 JUMP JUMPDEST PUSH1 0x0 DUP1 PUSH1 0x40 DUP4 DUP6 SUB SLT ISZERO PUSH2 0x18AD JUMPI PUSH1 0x0 DUP1 REVERT JUMPDEST PUSH2 0x18B6 DUP4 PUSH2 0x1352 JUMP JUMPDEST SWAP2 POP PUSH2 0x18C4 PUSH1 0x20 DUP5 ADD PUSH2 0x1352 JUMP JUMPDEST SWAP1 POP SWAP3 POP SWAP3 SWAP1 POP JUMP JUMPDEST PUSH1 0x1 DUP2 DUP2 SHR SWAP1 DUP3 AND DUP1 PUSH2 0x18E1 JUMPI PUSH1 0x7F DUP3 AND SWAP2 POP JUMPDEST PUSH1 0x20 DUP3 LT DUP2 SUB PUSH2 0x1901 JUMPI PUSH4 0x4E487B71 PUSH1 0xE0 SHL PUSH1 0x0 MSTORE PUSH1 0x22 PUSH1 0x4 MSTORE PUSH1 0x24 PUSH1 0x0 REVERT JUMPDEST POP SWAP2 SWAP1 POP JUMP JUMPDEST PUSH1 0x1F DUP3 GT ISZERO PUSH2 0x1951 JUMPI PUSH1 0x0 DUP2 DUP2 MSTORE PUSH1 0x20 DUP2 KECCAK256 PUSH1 0x1F DUP6 ADD PUSH1 0x5 SHR DUP2 ADD PUSH1 0x20 DUP7 LT ISZERO PUSH2 0x192E JUMPI POP DUP1 JUMPDEST PUSH1 0x1F DUP6 ADD PUSH1 0x5 SHR DUP3 ADD SWAP2 POP JUMPDEST DUP2 DUP2 LT ISZERO PUSH2 0x194D JUMPI DUP3 DUP2 SSTORE PUSH1 0x1 ADD PUSH2 0x193A JUMP JUMPDEST POP POP POP JUMPDEST POP POP POP JUMP JUMPDEST DUP2 MLOAD PUSH8 0xFFFFFFFFFFFFFFFF DUP2 GT ISZERO PUSH2 0x1970 JUMPI PUSH2 0x1970 PUSH2 0x1783 JUMP JUMPDEST PUSH2 0x1984 DUP2 PUSH2 0x197E DUP5 SLOAD PUSH2 0x18CD JUMP JUMPDEST DUP5 PUSH2 0x1907 JUMP JUMPDEST PUSH1 0x20 DUP1 PUSH1 0x1F DUP4 GT PUSH1 0x1 DUP2 EQ PUSH2 0x19B9 JUMPI PUSH1 0x0 DUP5 ISZERO PUSH2 0x19A1 JUMPI POP DUP6 DUP4 ADD MLOAD JUMPDEST PUSH1 0x0 NOT PUSH1 0x3 DUP7 SWAP1 SHL SHR NOT AND PUSH1 0x1 DUP6 SWAP1 SHL OR DUP6 SSTORE PUSH2 0x194D JUMP JUMPDEST PUSH1 0x0 DUP6 DUP2 MSTORE PUSH1 0x20 DUP2 KECCAK256 PUSH1 0x1F NOT DUP7 AND SWAP2 JUMPDEST DUP3 DUP2 LT ISZERO PUSH2 0x19E8 JUMPI DUP9 DUP7 ADD MLOAD DUP3 SSTORE SWAP5 DUP5 ADD SWAP5 PUSH1 0x1 SWAP1 SWAP2 ADD SWAP1 DUP5 ADD PUSH2 0x19C9 JUMP JUMPDEST POP DUP6 DUP3 LT ISZERO PUSH2 0x1A06 JUMPI DUP8 DUP6 ADD MLOAD PUSH1 0x0 NOT PUSH1 0x3 DUP9 SWAP1 SHL PUSH1 0xF8 AND SHR NOT AND DUP2 SSTORE JUMPDEST POP POP POP POP POP PUSH1 0x1 SWAP1 DUP2 SHL ADD SWAP1 SSTORE POP JUMP JUMPDEST DUP2 DUP4 MSTORE DUP2 DUP2 PUSH1 0x20 DUP6 ADD CALLDATACOPY POP PUSH1 0x0 DUP3 DUP3 ADD PUSH1 0x20 SWAP1 DUP2 ADD SWAP2 SWAP1 SWAP2 MSTORE PUSH1 0x1F SWAP1 SWAP2 ADD PUSH1 0x1F NOT AND SWAP1 SWAP2 ADD ADD SWAP1 JUMP JUMPDEST PUSH1 0x80 DUP2 MSTORE PUSH1 0x0 PUSH2 0x1A53 PUSH1 0x80 DUP4 ADD DUP9 DUP11 PUSH2 0x1A16 JUMP JUMPDEST DUP7 PUSH1 0x20 DUP5 ADD MSTORE DUP3 DUP2 SUB PUSH1 0x40 DUP5 ADD MSTORE PUSH2 0x1A6C DUP2 DUP7 DUP9 PUSH2 0x1A16 JUMP JUMPDEST SWAP2 POP POP DUP3 PUSH1 0x60 DUP4 ADD MSTORE SWAP8 SWAP7 POP POP POP POP POP POP POP JUMP JUMPDEST PUSH4 0x4E487B71 PUSH1 0xE0 SHL PUSH1 0x0 MSTORE PUSH1 0x32 PUSH1 0x4 MSTORE PUSH1 0x24 PUSH1 0x0 REVERT JUMPDEST PUSH1 0x0 PUSH1 0x1 DUP3 ADD PUSH2 0x1AB6 JUMPI PUSH4 0x4E487B71 PUSH1 0xE0 SHL PUSH1 0x0 MSTORE PUSH1 0x11 PUSH1 0x4 MSTORE PUSH1 0x24 PUSH1 0x0 REVERT JUMPDEST POP PUSH1 0x1 ADD SWAP1 JUMP JUMPDEST PUSH8 0xFFFFFFFFFFFFFFFF DUP4 GT ISZERO PUSH2 0x1AD5 JUMPI PUSH2 0x1AD5 PUSH2 0x1783 JUMP JUMPDEST PUSH2 0x1AE9 DUP4 PUSH2 0x1AE3 DUP4 SLOAD PUSH2 0x18CD JUMP JUMPDEST DUP4 PUSH2 0x1907 JUMP JUMPDEST PUSH1 0x0 PUSH1 0x1F DUP5 GT PUSH1 0x1 DUP2 EQ PUSH2 0x1B1D JUMPI PUSH1 0x0 DUP6 ISZERO PUSH2 0x1B05 JUMPI POP DUP4 DUP3 ADD CALLDATALOAD JUMPDEST PUSH1 0x0 NOT PUSH1 0x3 DUP8 SWAP1 SHL SHR NOT AND PUSH1 0x1 DUP7 SWAP1 SHL OR DUP4 SSTORE PUSH2 0x1B77 JUMP JUMPDEST PUSH1 0x0 DUP4 DUP2 MSTORE PUSH1 0x20 SWAP1 KECCAK256 PUSH1 0x1F NOT DUP7 AND SWAP1 DUP4 JUMPDEST DUP3 DUP2 LT ISZERO PUSH2 0x1B4E JUMPI DUP7 DUP6 ADD CALLDATALOAD DUP3 SSTORE PUSH1 0x20 SWAP5 DUP6 ADD SWAP5 PUSH1 0x1 SWAP1 SWAP3 ADD SWAP2 ADD PUSH2 0x1B2E JUMP JUMPDEST POP DUP7 DUP3 LT ISZERO PUSH2 0x1B6B JUMPI PUSH1 0x0 NOT PUSH1 0xF8 DUP9 PUSH1 0x3 SHL AND SHR NOT DUP5 DUP8 ADD CALLDATALOAD AND DUP2 SSTORE JUMPDEST POP POP PUSH1 0x1 DUP6 PUSH1 0x1 SHL ADD DUP4 SSTORE JUMPDEST POP POP POP POP POP JUMP JUMPDEST PUSH1 0x40 DUP2 MSTORE PUSH1 0x0 PUSH2 0x1B92 PUSH1 0x40 DUP4 ADD DUP7 DUP9 PUSH2 0x1A16 JUMP JUMPDEST DUP3 DUP2 SUB PUSH1 0x20 DUP5 ADD MSTORE PUSH2 0x1BA5 DUP2 DUP6 DUP8 PUSH2 0x1A16 JUMP JUMPDEST SWAP8 SWAP7 POP POP POP POP POP POP POP JUMP JUMPDEST PUSH1 0x40 DUP2 MSTORE PUSH1 0x0 PUSH2 0x1BC4 PUSH1 0x40 DUP4 ADD DUP6 DUP8 PUSH2 0x1A16 JUMP JUMPDEST SWAP1 POP DUP3 PUSH1 0x20 DUP4 ADD MSTORE SWAP5 SWAP4 POP POP POP POP JUMP JUMPDEST PUSH1 0x60 DUP2 MSTORE PUSH1 0x0 PUSH2 0x1BE7 PUSH1 0x60 DUP4 ADD DUP7 PUSH2 0x1463 JUMP JUMPDEST DUP3 DUP2 SUB PUSH1 0x20 DUP5 ADD MSTORE PUSH2 0x1BF9 DUP2 DUP7 PUSH2 0x1463 JUMP JUMPDEST SWAP2 POP POP DUP3 PUSH1 0x40 DUP4 ADD MSTORE SWAP5 SWAP4 POP POP POP POP JUMP INVALID LOG2 PUSH5 0x6970667358 0x22 SLT KECCAK256 SIGNEXTEND PUSH21 0x66ED030EEE98FC57FECDEEA299C310C5C6AA0598BD 0xED 0xC7 PUSH18 0x79C49E98FA6B64736F6C6343000814003300 "},"methodIdentifiers":{"dispensePrescription(address,string)":"c423a791","getClaimsByPatient(address)":"967ddcf5","getDispensesByPatient(address)":"804b7bf2","getRecords(address)":"a0076e84","getRecordsAuthorized(address)":"e82d3cec","grantReadAccess(address)":"b42e17fb","hasReadAccess(address,address)":"fe48c6b2","isInsurer(address)":"da7897e2","isPharmacy(address)":"dfb0fda3","registerInsurer()":"ebc14ea7","registerPharmacy()":"4e51389a","revokeReadAccess(address)":"425600b8","storeRecord(address,string,string)":"f7ca0af0","submitClaim(address,string,uint256,string)":"59866966","updateClaimStatus(uint256,string,string)":"bcea8cd5"}}}}}