{
  "_format": "hh-sol-artifact-1",
  "contractName": "MediTrust",
  "sourceName": "contracts/MediTrust.sol",
  "abi": [
    {
      "anonymous": false,
      "inputs": [
        {
          "indexed": true,
          "internalType": "address",
          "name": "patient",
          "type": "address"
        },
        {
          "indexed": true,
          "internalType": "address",
          "name": "viewer",
          "type": "address"
        }
      ],
      "name": "AccessGranted",
      "type": "event"
    },
    {
      "anonymous": false,
      "inputs": [
        {
          "indexed": true,
          "internalType": "address",
          "name": "patient",
          "type": "address"
        },
        {
          "indexed": true,
          "internalType": "address",
          "name": "viewer",
          "type": "address"
        }
      ],
      "name": "AccessRevoked",
      "type": "event"
    },
    {
      "anonymous": false,
      "inputs": [
        {
          "indexed": true,
          "internalType": "uint256",
          "name": "id",
          "type": "uint256"
        },
        {
          "indexed": true,
          "internalType": "address",
          "name": "insurer",
          "type": "address"
        },
        {
          "indexed": true,
          "internalType": "address",
          "name": "patient",
          "type": "address"
        },
        {
          "indexed": false,
          "internalType": "string",
          "name": "cid",
          "type": "string"
        },
        {
          "indexed": false,
          "internalType": "uint256",
          "name": "amount",
          "type": "uint256"
        },
        {
          "indexed": false,
          "internalType": "string",
          "name": "note",
          "type": "string"
        },
        {
          "indexed": false,
          "internalType": "uint256",
          "name": "timestamp",
          "type": "uint256"
        }
      ],
      "name": "ClaimSubmitted",
      "type": "event"
    },
    {
      "anonymous": false,
      "inputs": [
        {
          "indexed": true,
          "internalType": "uint256",
          "name": "id",
          "type": "uint256"
        },
        {
          "indexed": false,
          "internalType": "string",
          "name": "status",
          "type": "string"
        },
        {
          "indexed": false,
          "internalType": "string",
          "name": "note",
          "type": "string"
        }
      ],
      "name": "ClaimUpdated",
      "type": "event"
    },
    {
      "anonymous": false,
      "inputs": [
        {
          "indexed": true,
          "internalType": "address",
          "name": "insurer",
          "type": "address"
        }
      ],
      "name": "InsurerRegistered",
      "type": "event"
    },
    {
      "anonymous": false,
      "inputs": [
        {
          "indexed": true,
          "internalType": "address",
          "name": "pharmacy",
          "type": "address"
        }
      ],
      "name": "PharmacyRegistered",
      "type": "event"
    },
    {
      "anonymous": false,
      "inputs": [
        {
          "indexed": true,
          "internalType": "address",
          "name": "pharmacy",
          "type": "address"
        },
        {
          "indexed": true,
          "internalType": "address",
          "name": "patient",
          "type": "address"
        },
        {
          "indexed": false,
          "internalType": "string",
          "name": "cid",
          "type": "string"
        },
        {
          "indexed": false,
          "internalType": "uint256",
          "name": "timestamp",
          "type": "uint256"
        }
      ],
      "name": "PrescriptionDispensed",
      "type": "event"
    },
    {
      "anonymous": false,
      "inputs": [
        {
          "indexed": true,
          "internalType": "address",
          "name": "patient",
          "type": "address"
        },
        {
          "indexed": false,
          "internalType": "string",
          "name": "cid",
          "type": "string"
        },
        {
          "indexed": false,
          "internalType": "string",
          "name": "description",
          "type": "string"
        },
        {
          "indexed": false,
          "internalType": "uint256",
          "name": "timestamp",
          "type": "uint256"
        }
      ],
      "name": "RecordStored",
      "type": "event"
    },
    {
      "inputs": [
        {
          "internalType": "address",
          "name": "patient",
          "type": "address"
        },
        {
          "internalType": "string",
          "name": "cid",
          "type": "string"
        }
      ],
      "name": "dispensePrescription",
      "outputs": [],
      "stateMutability": "nonpayable",
      "type": "function"
    },
    {
      "inputs": [
        {
          "internalType": "address",
          "name": "patient",
          "type": "address"
        }
      ],
      "name": "getClaimsByPatient",
      "outputs": [
        {
          "components": [
            {
              "internalType": "uint256",
              "name": "id",
              "type": "uint256"
            },
            {
              "internalType": "address",
              "name": "insurer",
              "type": "address"
            },
            {
              "internalType": "address",
              "name": "patient",
              "type": "address"
            },
            {
              "internalType": "string",
              "name": "cid",
              "type": "string"
            },
            {
              "internalType": "uint256",
              "name": "amount",
              "type": "uint256"
            },
            {
              "internalType": "string",
              "name": "status",
              "type": "string"
            },
            {
              "internalType": "string",
              "name": "note",
              "type": "string"
            },
            {
              "internalType": "uint256",
              "name": "timestamp",
              "type": "uint256"
            }
          ],
          "internalType": "struct MediTrust.Claim[]",
          "name": "",
          "type": "tuple[]"
        }
      ],
      "stateMutability": "view",
      "type": "function"
    },
    {
      "inputs": [
        {
          "internalType": "address",
          "name": "patient",
          "type": "address"
        }
      ],
      "name": "getDispensesByPatient",
      "outputs": [
        {
          "components": [
            {
              "internalType": "address",
              "name": "pharmacy",
              "type": "address"
            },
            {
              "internalType": "address",
              "name": "patient",
              "type": "address"
            },
            {
              "internalType": "string",
              "name": "cid",
              "type": "string"
            },
            {
              "internalType": "uint256",
              "name": "timestamp",
              "type": "uint256"
            }
          ],
          "internalType": "struct MediTrust.Dispense[]",
          "name": "",
          "type": "tuple[]"
        }
      ],
      "stateMutability": "view",
      "type": "function"
    },
    {
      "inputs": [
        {
          "internalType": "address",
          "name": "_patient",
          "type": "address"
        }
      ],
      "name": "getRecords",
      "outputs": [
        {
          "components": [
            {
              "internalType": "address",
              "name": "patient",
              "type": "address"
            },
            {
              "internalType": "string",
              "name": "cid",
              "type": "string"
            },
            {
              "internalType": "string",
              "name": "description",
              "type": "string"
            },
            {
              "internalType": "uint256",
              "name": "timestamp",
              "type": "uint256"
            }
          ],
          "internalType": "struct MediTrust.Record[]",
          "name": "",
          "type": "tuple[]"
        }
      ],
      "stateMutability": "view",
      "type": "function"
    },
    {
      "inputs": [
        {
          "internalType": "address",
          "name": "patient",
          "type": "address"
        }
      ],
      "name": "getRecordsAuthorized",
      "outputs": [
        {
          "components": [
            {
              "internalType": "address",
              "name": "patient",
              "type": "address"
            },
            {
              "internalType": "string",
              "name": "cid",
              "type": "string"
            },
            {
              "internalType": "string",
              "name": "description",
              "type": "string"
            },
            {
              "internalType": "uint256",
              "name": "timestamp",
              "type": "uint256"
            }
          ],
          "internalType": "struct MediTrust.Record[]",
          "name": "",
          "type": "tuple[]"
        }
      ],
      "stateMutability": "view",
      "type": "function"
    },
    {
      "inputs": [
        {
          "internalType": "address",
          "name": "viewer",
          "type": "address"
        }
      ],
      "name": "grantReadAccess",
      "outputs": [],
      "stateMutability": "nonpayable",
      "type": "function"
    },
    {
      "inputs": [
        {
          "internalType": "address",
          "name": "patient",
          "type": "address"
        },
        {
          "internalType": "address",
          "name": "viewer",
          "type": "address"
        }
      ],
      "name": "hasReadAccess",
      "outputs": [
        {
          "internalType": "bool",
          "name": "",
          "type": "bool"
        }
      ],
      "stateMutability": "view",
      "type": "function"
    },
    {
      "inputs": [
        {
          "internalType": "address",
          "name": "",
          "type": "address"
        }
      ],
      "name": "isInsurer",
      "outputs": [
        {
          "internalType": "bool",
          "name": "",
          "type": "bool"
        }
      ],
      "stateMutability": "view",
      "type": "function"
    },
    {
      "inputs": [
        {
          "internalType": "address",
          "name": "",
          "type": "address"
        }
      ],
      "name": "isPharmacy",
      "outputs": [
        {
          "internalType": "bool",
          "name": "",
          "type": "bool"
        }
      ],
      "stateMutability": "view",
      "type": "function"
    },
    {
      "inputs": [],
      "name": "registerInsurer",
      "outputs": [],
      "stateMutability": "nonpayable",
      "type": "function"
    },
    {
      "inputs": [],
      "name": "registerPharmacy",
      "outputs": [],
      "stateMutability": "nonpayable",
      "type": "function"
    },
    {
      "inputs": [
        {
          "internalType": "address",
          "name": "viewer",
          "type": "address"
        }
      ],
      "name": "revokeReadAccess",
      "outputs": [],
      "stateMutability": "nonpayable",
      "type": "function"
    },
    {
      "inputs": [
        {
          "internalType": "address",
          "name": "_patient",
          "type": "address"
        },
        {
          "internalType": "string",
          "name": "_cid",
          "type": "string"
        },
        {
          "internalType": "string",
          "name": "_desc",
          "type": "string"
        }
      ],
      "name": "storeRecord",
      "outputs": [],
      "stateMutability": "nonpayable",
      "type": "function"
    },
    {
      "inputs": [
        {
          "internalType": "address",
          "name": "patient",
          "type": "address"
        },
        {
          "internalType": "string",
          "name": "cid",
          "type": "string"
        },
        {
          "internalType": "uint256",
          "name": "amount",
          "type": "uint256"
        },
        {
          "internalType": "string",
          "name": "note",
          "type": "string"
        }
      ],
      "name": "submitClaim",
      "outputs": [],
      "stateMutability": "nonpayable",
      "type": "function"
    },
    {
      "inputs": [
        {
          "internalType": "uint256",
          "name": "id",
          "type": "uint256"
        },
        {
          "internalType": "string",
          "name": "status",
          "type": "string"
        },
        {
          "internalType": "string",
          "name": "note",
          "type": "string"
        }
      ],
      "name": "updateClaimStatus",
      "outputs": [],
      "stateMutability": "nonpayable",
      "type": "function"
    }
  ],
  "bytecode": "0x608060405234801561001057600080fd5b50611c40806100206000396000f3fe608060405234801561001057600080fd5b50600436106100f55760003560e01c8063bcea8cd511610097578063e82d3cec11610066578063e82d3cec14610222578063ebc14ea714610235578063f7ca0af01461023d578063fe48c6b21461025057600080fd5b8063bcea8cd5146101a6578063c423a791146101b9578063da7897e2146101cc578063dfb0fda3146101ff57600080fd5b8063804b7bf2116100d3578063804b7bf21461012a578063967ddcf514610153578063a0076e8414610173578063b42e17fb1461019357600080fd5b8063425600b8146100fa5780634e51389a1461010f5780635986696614610117575b600080fd5b61010d61010836600461136e565b61028c565b005b61010d6102e2565b61010d6101253660046113d9565b610324565b61013d61013836600461136e565b61055f565b60405161014a91906114a9565b60405180910390f35b61016661016136600461136e565b610693565b60405161014a9190611543565b61018661018136600461136e565b610a69565b60405161014a919061161d565b61010d6101a136600461136e565b610c17565b61010d6101b43660046116b6565b610c70565b61010d6101c7366004611730565b610dd8565b6101ef6101da36600461136e565b60046020526000908152604090205460ff1681565b604051901515815260200161014a565b6101ef61020d36600461136e565b60036020526000908152604090205460ff1681565b61018661023036600461136e565b610f60565b61010d611182565b61010d61024b366004611826565b6111c4565b6101ef61025e36600461189a565b6001600160a01b03918216600090815260026020908152604080832093909416825291909152205460ff1690565b3360008181526002602090815260408083206001600160a01b0386168085529252808320805460ff19169055519092917f825c8be24eb0df19500f63e86c29e7d0d951e73056b889b891d85e40938d9b6e91a350565b33600081815260036020526040808220805460ff19166001179055517f1790d2915e4c45acea19ac4c15c61503a1428ec4921958b23af77114039c48019190a2565b3360009081526004602052604090205460ff166103765760405162461bcd60e51b815260206004820152600b60248201526a2737ba1034b739bab932b960a91b60448201526064015b60405180910390fd5b600060068054905090506006604051806101000160405280838152602001336001600160a01b03168152602001896001600160a01b0316815260200188888080601f0160208091040260200160405190810160405280939291908181526020018383808284376000920191909152505050908252506020808201889052604080518082018252600981526814dd589b5a5d1d195960ba1b81840152818401528051601f88018390048302810183019091528681526060909201919087908790819084018382808284376000920182905250938552505042602093840152508354600181810186559482529082902083516008909202019081559082015192810180546001600160a01b039485166001600160a01b031991821617909155604083015160028301805491909516911617909255606081015190919060038201906104bf9082611956565b506080820151600482015560a082015160058201906104de9082611956565b5060c082015160068201906104f39082611956565b5060e082015181600701555050866001600160a01b0316336001600160a01b0316827f0708f45fbc157b8c84bde1796b76e5ae602093565d545fee7b85ae708d7a23a989898989894260405161054e96959493929190611a3f565b60405180910390a450505050505050565b6001600160a01b0381166000908152600560209081526040808320805482518185028101850190935280835260609492939192909184015b82821015610688576000848152602090819020604080516080810182526004860290920180546001600160a01b03908116845260018201541693830193909352600283018054929392918401916105ed906118cd565b80601f0160208091040260200160405190810160405280929190818152602001828054610619906118cd565b80156106665780601f1061063b57610100808354040283529160200191610666565b820191906000526020600020905b81548152906001019060200180831161064957829003601f168201915b5050505050815260200160038201548152505081526020019060010190610597565b505050509050919050565b60606000805b60065481101561070257836001600160a01b0316600682815481106106c0576106c0611a80565b60009182526020909120600260089092020101546001600160a01b0316036106f057816106ec81611a96565b9250505b806106fa81611a96565b915050610699565b5060008167ffffffffffffffff81111561071e5761071e611783565b6040519080825280602002602001820160405280156107a957816020015b6107966040518061010001604052806000815260200160006001600160a01b0316815260200160006001600160a01b0316815260200160608152602001600081526020016060815260200160608152602001600081525090565b81526020019060019003908161073c5790505b5090506000805b600654811015610a5f57856001600160a01b0316600682815481106107d7576107d7611a80565b60009182526020909120600260089092020101546001600160a01b031603610a4d576006818154811061080c5761080c611a80565b6000918252602091829020604080516101008101825260089093029091018054835260018101546001600160a01b0390811694840194909452600281015490931690820152600382018054919291606084019190610869906118cd565b80601f0160208091040260200160405190810160405280929190818152602001828054610895906118cd565b80156108e25780601f106108b7576101008083540402835291602001916108e2565b820191906000526020600020905b8154815290600101906020018083116108c557829003601f168201915b5050505050815260200160048201548152602001600582018054610905906118cd565b80601f0160208091040260200160405190810160405280929190818152602001828054610931906118cd565b801561097e5780601f106109535761010080835404028352916020019161097e565b820191906000526020600020905b81548152906001019060200180831161096157829003601f168201915b50505050508152602001600682018054610997906118cd565b80601f01602080910402602001604051908101604052809291908181526020018280546109c3906118cd565b8015610a105780601f106109e557610100808354040283529160200191610a10565b820191906000526020600020905b8154815290600101906020018083116109f357829003601f168201915b50505050508152602001600782015481525050838380610a2f90611a96565b945081518110610a4157610a41611a80565b60200260200101819052505b80610a5781611a96565b9150506107b0565b5090949350505050565b6001600160a01b0381166000908152600160209081526040808320805482518185028101850190935280835260609492939192909184015b8282101561068857600084815260209081902060408051608081019091526004850290910180546001600160a01b031682526001810180549293919291840191610aea906118cd565b80601f0160208091040260200160405190810160405280929190818152602001828054610b16906118cd565b8015610b635780601f10610b3857610100808354040283529160200191610b63565b820191906000526020600020905b815481529060010190602001808311610b4657829003601f168201915b50505050508152602001600282018054610b7c906118cd565b80601f0160208091040260200160405190810160405280929190818152602001828054610ba8906118cd565b8015610bf55780601f10610bca57610100808354040283529160200191610bf5565b820191906000526020600020905b815481529060010190602001808311610bd857829003601f168201915b5050505050815260200160038201548152505081526020019060010190610aa1565b3360008181526002602090815260408083206001600160a01b0386168085529252808320805460ff19166001179055519092917f9f520b3bfc56d06f7065d10b4683b3f57ac8895d5026cd176dee95ce1454cb8d91a350565b3360009081526004602052604090205460ff16610cbd5760405162461bcd60e51b815260206004820152600b60248201526a2737ba1034b739bab932b960a91b604482015260640161036d565b6006548510610cfe5760405162461bcd60e51b815260206004820152600d60248201526c496e76616c696420636c61696d60981b604482015260640161036d565b600060068681548110610d1357610d13611a80565b600091825260209091206001600890920201908101549091506001600160a01b03163314610d725760405162461bcd60e51b815260206004820152600c60248201526b27b7363c9034b739bab932b960a11b604482015260640161036d565b60058101610d81858783611abd565b5060068101610d91838583611abd565b50857f0352338c0a745eb7b4ffe245489a99b3e7cffe44ddcf8a9a10561b904e5ff5bc86868686604051610dc89493929190611b7e565b60405180910390a2505050505050565b3360009081526003602052604090205460ff16610e265760405162461bcd60e51b815260206004820152600c60248201526b4e6f7420706861726d61637960a01b604482015260640161036d565b60006040518060800160405280336001600160a01b03168152602001856001600160a01b0316815260200184848080601f0160208091040260200160405190810160405280939291908181526020018383808284376000920182905250938552505042602093840152506001600160a01b03808816825260058352604080832080546001818101835591855293859020865160049095020180549484166001600160a01b031995861617815594860151908501805491909316931692909217905582015191925082916002820190610efe9082611956565b50606082015181600301555050836001600160a01b0316336001600160a01b03167f4f7068636b4e2f3b8508718963a5d0a3ae08f55a6cd98c115e95a4d453505f97858542604051610f5293929190611bb0565b60405180910390a350505050565b6060336001600160a01b0383161480610f9c57506001600160a01b038216600090815260026020908152604080832033845290915290205460ff165b610fd95760405162461bcd60e51b815260206004820152600e60248201526d139bdd08185d5d1a1bdc9a5e995960921b604482015260640161036d565b6001600160a01b038216600090815260016020908152604080832080548251818502810185019093528083529193909284015b8282101561068857600084815260209081902060408051608081019091526004850290910180546001600160a01b031682526001810180549293919291840191611055906118cd565b80601f0160208091040260200160405190810160405280929190818152602001828054611081906118cd565b80156110ce5780601f106110a3576101008083540402835291602001916110ce565b820191906000526020600020905b8154815290600101906020018083116110b157829003601f168201915b505050505081526020016002820180546110e7906118cd565b80601f0160208091040260200160405190810160405280929190818152602001828054611113906118cd565b80156111605780601f1061113557610100808354040283529160200191611160565b820191906000526020600020905b81548152906001019060200180831161114357829003601f168201915b505050505081526020016003820154815250508152602001906001019061100c565b33600081815260046020526040808220805460ff19166001179055517f25fb9f4c94fb71107ebc226956d9fa5848c48e1a66ec8a02d3e74eb6db60f9369190a2565b604080516080810182526001600160a01b038581168083526020808401878152848601879052426060860152600092835260018083529583208054808801825590845291909220845160049092020180546001600160a01b031916919093161782555191928392908201906112399082611956565b506040820151600282019061124e9082611956565b50606091909101516003909101556000805460018101825590805281517f290decd9548b62a8d60345a988386fc84ba6bc95484008f6362f93160ef3e563600490920291820180546001600160a01b0319166001600160a01b03909216919091178155602083015183927f290decd9548b62a8d60345a988386fc84ba6bc95484008f6362f93160ef3e56401906112e59082611956565b50604082015160028201906112fa9082611956565b50606082015181600301555050836001600160a01b03167f2f476d5c183b5f6db52b986731f160de20d40d82c9f688c3d78442a090a4fea884844260405161134493929190611bd4565b60405180910390a250505050565b80356001600160a01b038116811461136957600080fd5b919050565b60006020828403121561138057600080fd5b61138982611352565b9392505050565b60008083601f8401126113a257600080fd5b50813567ffffffffffffffff8111156113ba57600080fd5b6020830191508360208285010111156113d257600080fd5b9250929050565b600080600080600080608087890312156113f257600080fd5b6113fb87611352565b9550602087013567ffffffffffffffff8082111561141857600080fd5b6114248a838b01611390565b909750955060408901359450606089013591508082111561144457600080fd5b5061145189828a01611390565b979a9699509497509295939492505050565b6000815180845260005b818110156114895760208185018101518683018201520161146d565b506000602082860101526020601f19601f83011685010191505092915050565b60006020808301818452808551808352604092508286019150828160051b87010184880160005b8381101561153557888303603f19018552815180516001600160a01b0390811685528882015116888501528681015160808886018190529061151482870182611463565b606093840151969093019590955250948701949250908601906001016114d0565b509098975050505050505050565b60006020808301818452808551808352604092508286019150828160051b87010184880160005b8381101561153557603f19898403018552815180518452878101516001600160a01b039081168986015287820151168785015260608082015161010082870181905291906115ba83880182611463565b92505050608080830151818701525060a080830151868303828801526115e08382611463565b9250505060c080830151868303828801526115fb8382611463565b60e094850151979094019690965250509487019492509086019060010161156a565b60006020808301818452808551808352604092508286019150828160051b87010184880160005b8381101561153557888303603f19018552815180516001600160a01b031684528781015160808986018190529061167d82870182611463565b91505087820151858203898701526116958282611463565b60609384015196909301959095525094870194925090860190600101611644565b6000806000806000606086880312156116ce57600080fd5b85359450602086013567ffffffffffffffff808211156116ed57600080fd5b6116f989838a01611390565b9096509450604088013591508082111561171257600080fd5b5061171f88828901611390565b969995985093965092949392505050565b60008060006040848603121561174557600080fd5b61174e84611352565b9250602084013567ffffffffffffffff81111561176a57600080fd5b61177686828701611390565b9497909650939450505050565b634e487b7160e01b600052604160045260246000fd5b600082601f8301126117aa57600080fd5b813567ffffffffffffffff808211156117c5576117c5611783565b604051601f8301601f19908116603f011681019082821181831017156117ed576117ed611783565b8160405283815286602085880101111561180657600080fd5b836020870160208301376000602085830101528094505050505092915050565b60008060006060848603121561183b57600080fd5b61184484611352565b9250602084013567ffffffffffffffff8082111561186157600080fd5b61186d87838801611799565b9350604086013591508082111561188357600080fd5b5061189086828701611799565b9150509250925092565b600080604083850312156118ad57600080fd5b6118b683611352565b91506118c460208401611352565b90509250929050565b600181811c908216806118e157607f821691505b60208210810361190157634e487b7160e01b600052602260045260246000fd5b50919050565b601f82111561195157600081815260208120601f850160051c8101602086101561192e5750805b601f850160051c820191505b8181101561194d5782815560010161193a565b5050505b505050565b815167ffffffffffffffff81111561197057611970611783565b6119848161197e84546118cd565b84611907565b602080601f8311600181146119b957600084156119a15750858301515b600019600386901b1c1916600185901b17855561194d565b600085815260208120601f198616915b828110156119e8578886015182559484019460019091019084016119c9565b5085821015611a065787850151600019600388901b60f8161c191681555b5050505050600190811b01905550565b81835281816020850137506000828201602090810191909152601f909101601f19169091010190565b608081526000611a5360808301888a611a16565b8660208401528281036040840152611a6c818688611a16565b915050826060830152979650505050505050565b634e487b7160e01b600052603260045260246000fd5b600060018201611ab657634e487b7160e01b600052601160045260246000fd5b5060010190565b67ffffffffffffffff831115611ad557611ad5611783565b611ae983611ae383546118cd565b83611907565b6000601f841160018114611b1d5760008515611b055750838201355b600019600387901b1c1916600186901b178355611b77565b600083815260209020601f19861690835b82811015611b4e5786850135825560209485019460019092019101611b2e565b5086821015611b6b5760001960f88860031b161c19848701351681555b505060018560011b0183555b5050505050565b604081526000611b92604083018688611a16565b8281036020840152611ba5818587611a16565b979650505050505050565b604081526000611bc4604083018587611a16565b9050826020830152949350505050565b606081526000611be76060830186611463565b8281036020840152611bf98186611463565b91505082604083015294935050505056fea26469706673582212200b7466ed030eee98fc57fecdeea299c310c5c6aa0598bdedc77179c49e98fa6b64736f6c63430008140033",
  "linkReferences": {},
  "deployedLinkReferences": {}
}