{
  "_format": "hh-sol-artifact-1",
  "contractName": "MediTrust",
  "sourceName": "contracts/MediTrust.sol",
  "abi": [
    {
      "anonymous": false,
      "inputs": [
        {
          "indexed": true,
          "internalType": "address",
          "name": "patient",
          "type": "address"
        },
        {
          "indexed": true,
          "internalType": "address",
          "name": "viewer",
          "type": "address"
        }
      ],
      "name": "AccessGranted",
      "type": "event"
    },
    {
      "anonymous": false,
      "inputs": [
        {
          "indexed": true,
          "internalType": "address",
          "name": "patient",
          "type": "address"
        },
        {
          "indexed": true,
          "internalType": "address",
          "name": "viewer",
          "type": "address"
        }
      ],
      "name": "AccessRevoked",
      "type": "event"
    },
    {
      "anonymous": false,
      "inputs": [
        {
          "indexed": true,
          "internalType": "uint256",
          "name": "id",
          "type": "uint256"
        },
        {
          "indexed": true,
          "internalType": "address",
          "name": "insurer",
          "type": "address"
        },
        {
          "indexed": true,
          "internalType": "address",
          "name": "patient",
          "type": "address"
        },
        {
          "indexed": false,
          "internalType": "string",
          "name": "cid",
          "type": "string"
        },
        {
          "indexed": false,
          "internalType": "uint256",
          "name": "amount",
          "type": "uint256"
        },
        {
          "indexed": false,
          "internalType": "string",
          "name": "note",
          "type": "string"
        },
        {
          "indexed": false,
          "internalType": "uint256",
          "name": "timestamp",
          "type": "uint256"
        }
      ],
      "name": "ClaimSubmitted",
      "type": "event"
    },
    {
      "anonymous": false,
      "inputs": [
        {
          "indexed": true,
          "internalType": "uint256",
          "name": "id",
          "type": "uint256"
        },
        {
          "indexed": false,
          "internalType": "string",
          "name": "status",
          "type": "string"
        },
        {
          "indexed": false,
          "internalType": "string",
          "name": "note",
          "type": "string"
        }
      ],
      "name": "ClaimUpdated",
      "type": "event"
    },
    {
      "anonymous": false,
      "inputs": [
        {
          "indexed": true,
          "internalType": "address",
          "name": "insurer",
          "type": "address"
        }
      ],
      "name": "InsurerRegistered",
      "type": "event"
    },
    {
      "anonymous": false,
      "inputs": [
        {
          "indexed": true,
          "internalType": "address",
          "name": "pharmacy",
          "type": "address"
        }
      ],
      "name": "PharmacyRegistered",
      "type": "event"
    },
    {
      "anonymous": false,
      "inputs": [
        {
          "indexed": true,
          "internalType": "address",
          "name": "pharmacy",
          "type": "address"
        },
        {
          "indexed": true,
          "internalType": "address",
          "name": "patient",
          "type": "address"
        },
        {
          "indexed": false,
          "internalType": "string",
          "name": "cid",
          "type": "string"
        },
        {
          "indexed": false,
          "internalType": "uint256",
          "name": "timestamp",
          "type": "uint256"
        }
      ],
      "name": "PrescriptionDispensed",
      "type": "event"
    },
    {
      "anonymous": false,
      "inputs": [
        {
          "indexed": true,
          "internalType": "address",
          "name": "patient",
          "type": "address"
        },
        {
          "indexed": false,
          "internalType": "string",
          "name": "cid",
          "type": "string"
        },
        {
          "indexed": false,
          "internalType": "string",
          "name": "description",
          "type": "string"
        },
        {
          "indexed": false,
          "internalType": "string",
          "name": "category",
          "type": "string"
        },
        {
          "indexed": false,
          "internalType": "uint256",
          "name": "timestamp",
          "type": "uint256"
        }
      ],
      "name": "RecordStored",
      "type": "event"
    },
    {
      "inputs": [
        {
          "internalType": "address",
          "name": "patient",
          "type": "address"
        },
        {
          "internalType": "string",
          "name": "cid",
          "type": "string"
        }
      ],
      "name": "dispensePrescription",
      "outputs": [],
      "stateMutability": "nonpayable",
      "type": "function"
    },
    {
      "inputs": [
        {
          "internalType": "address",
          "name": "patient",
          "type": "address"
        }
      ],
      "name": "getClaimsByPatient",
      "outputs": [
        {
          "components": [
            {
              "internalType": "uint256",
              "name": "id",
              "type": "uint256"
            },
            {
              "internalType": "address",
              "name": "insurer",
              "type": "address"
            },
            {
              "internalType": "address",
              "name": "patient",
              "type": "address"
            },
            {
              "internalType": "string",
              "name": "cid",
              "type": "string"
            },
            {
              "internalType": "uint256",
              "name": "amount",
              "type": "uint256"
            },
            {
              "internalType": "string",
              "name": "status",
              "type": "string"
            },
            {
              "internalType": "string",
              "name": "note",
              "type": "string"
            },
            {
              "internalType": "uint256",
              "name": "timestamp",
              "type": "uint256"
            }
          ],
          "internalType": "struct MediTrust.Claim[]",
          "name": "",
          "type": "tuple[]"
        }
      ],
      "stateMutability": "view",
      "type": "function"
    },
    {
      "inputs": [
        {
          "internalType": "address",
          "name": "patient",
          "type": "address"
        }
      ],
      "name": "getDispensesByPatient",
      "outputs": [
        {
          "components": [
            {
              "internalType": "address",
              "name": "pharmacy",
              "type": "address"
            },
            {
              "internalType": "address",
              "name": "patient",
              "type": "address"
            },
            {
              "internalType": "string",
              "name": "cid",
              "type": "string"
            },
            {
              "internalType": "uint256",
              "name": "timestamp",
              "type": "uint256"
            }
          ],
          "internalType": "struct MediTrust.Dispense[]",
          "name": "",
          "type": "tuple[]"
        }
      ],
      "stateMutability": "view",
      "type": "function"
    },
    {
      "inputs": [
        {
          "internalType": "address",
          "name": "_patient",
          "type": "address"
        }
      ],
      "name": "getRecords",
      "outputs": [
        {
          "components": [
            {
              "internalType": "address",
              "name": "patient",
              "type": "address"
            },
            {
              "internalType": "string",
              "name": "cid",
              "type": "string"
            },
            {
              "internalType": "string",
              "name": "description",
              "type": "string"
            },
            {
              "internalType": "string",
              "name": "category",
              "type": "string"
            },
            {
              "internalType": "uint256",
              "name": "timestamp",
              "type": "uint256"
            }
          ],
          "internalType": "struct MediTrust.Record[]",
          "name": "",
          "type": "tuple[]"
        }
      ],
      "stateMutability": "view",
      "type": "function"
    },
    {
      "inputs": [
        {
          "internalType": "address",
          "name": "patient",
          "type": "address"
        }
      ],
      "name": "getRecordsAuthorized",
      "outputs": [
        {
          "components": [
            {
              "internalType": "address",
              "name": "patient",
              "type": "address"
            },
            {
              "internalType": "string",
              "name": "cid",
              "type": "string"
            },
            {
              "internalType": "string",
              "name": "description",
              "type": "string"
            },
            {
              "internalType": "string",
              "name": "category",
              "type": "string"
            },
            {
              "internalType": "uint256",
              "name": "timestamp",
              "type": "uint256"
            }
          ],
          "internalType": "struct MediTrust.Record[]",
          "name": "",
          "type": "tuple[]"
        }
      ],
      "stateMutability": "view",
      "type": "function"
    },
    {
      "inputs": [
        {
          "internalType": "address",
          "name": "viewer",
          "type": "address"
        }
      ],
      "name": "grantReadAccess",
      "outputs": [],
      "stateMutability": "nonpayable",
      "type": "function"
    },
    {
      "inputs": [
        {
          "internalType": "address",
          "name": "patient",
          "type": "address"
        },
        {
          "internalType": "address",
          "name": "viewer",
          "type": "address"
        }
      ],
      "name": "hasReadAccess",
      "outputs": [
        {
          "internalType": "bool",
          "name": "",
          "type": "bool"
        }
      ],
      "stateMutability": "view",
      "type": "function"
    },
    {
      "inputs": [
        {
          "internalType": "address",
          "name": "",
          "type": "address"
        }
      ],
      "name": "isInsurer",
      "outputs": [
        {
          "internalType": "bool",
          "name": "",
          "type": "bool"
        }
      ],
      "stateMutability": "view",
      "type": "function"
    },
    {
      "inputs": [
        {
          "internalType": "address",
          "name": "",
          "type": "address"
        }
      ],
      "name": "isPharmacy",
      "outputs": [
        {
          "internalType": "bool",
          "name": "",
          "type": "bool"
        }
      ],
      "stateMutability": "view",
      "type": "function"
    },
    {
      "inputs": [],
      "name": "registerInsurer",
      "outputs": [],
      "stateMutability": "nonpayable",
      "type": "function"
    },
    {
      "inputs": [],
      "name": "registerPharmacy",
      "outputs": [],
      "stateMutability": "nonpayable",
      "type": "function"
    },
    {
      "inputs": [
        {
          "internalType": "address",
          "name": "viewer",
          "type": "address"
        }
      ],
      "name": "revokeReadAccess",
      "outputs": [],
      "stateMutability": "nonpayable",
      "type": "function"
    },
    {
      "inputs": [
        {
          "internalType": "address",
          "name": "_patient",
          "type": "address"
        },
        {
          "internalType": "string",
          "name": "_cid",
          "type": "string"
        },
        {
          "internalType": "string",
          "name": "_desc",
          "type": "string"
        }
      ],
      "name": "storeRecord",
      "outputs": [],
      "stateMutability": "nonpayable",
      "type": "function"
    },
    {
      "inputs": [
        {
          "internalType": "address",
          "name": "_patient",
          "type": "address"
        },
        {
          "internalType": "string",
          "name": "_cid",
          "type": "string"
        },
        {
          "internalType": "string",
          "name": "_desc",
          "type": "string"
        },
        {
          "internalType": "string",
          "name": "_category",
          "type": "string"
        }
      ],
      "name": "storeRecordCategorized",
      "outputs": [],
      "stateMutability": "nonpayable",
      "type": "function"
    },
    {
      "inputs": [
        {
          "internalType": "address",
          "name": "patient",
          "type": "address"
        },
        {
          "internalType": "string",
          "name": "cid",
          "type": "string"
        },
        {
          "internalType": "uint256",
          "name": "amount",
          "type": "uint256"
        },
        {
          "internalType": "string",
          "name": "note",
          "type": "string"
        }
      ],
      "name": "submitClaim",
      "outputs": [],
      "stateMutability": "nonpayable",
      "type": "function"
    },
    {
      "inputs": [
        {
          "internalType": "uint256",
          "name": "id",
          "type": "uint256"
        },
        {
          "internalType": "string",
          "name": "status",
          "type": "string"
        },
        {
          "internalType": "string",
          "name": "note",
          "type": "string"
        }
      ],
      "name": "updateClaimStatus",
      "outputs": [],
      "stateMutability": "nonpayable",
      "type": "function"
    }
  ],
  "bytecode": "0x608060405234801561001057600080fd5b5061287a806100206000396000f3fe608060405234801561001057600080fd5b50600436106101005760003560e01c8063bcea8cd511610097578063e82d3cec11610066578063e82d3cec14610240578063ebc14ea714610253578063f7ca0af01461025b578063fe48c6b21461026e57600080fd5b8063bcea8cd5146101c4578063c423a791146101d7578063da7897e2146101ea578063dfb0fda31461021d57600080fd5b806381be5899116100d357806381be58991461015e578063967ddcf514610171578063a0076e8414610191578063b42e17fb146101b157600080fd5b8063425600b8146101055780634e51389a1461011a5780635986696614610122578063804b7bf214610135575b600080fd5b610118610113366004611e68565b6102aa565b005b610118610300565b610118610130366004611ecc565b610342565b610148610143366004611e68565b61057d565b6040516101559190611fa6565b60405180910390f35b61011861016c3660046120e3565b6106b1565b61018461017f366004611e68565b610873565b604051610155919061217c565b6101a461019f366004611e68565b610c49565b6040516101559190612256565b6101186101bf366004611e68565b610e89565b6101186101d236600461230a565b610ee2565b6101186101e5366004612384565b61104a565b61020d6101f8366004611e68565b60046020526000908152604090205460ff1681565b6040519015158152602001610155565b61020d61022b366004611e68565b60036020526000908152604090205460ff1681565b6101a461024e366004611e68565b6111d2565b610118611756565b6101186102693660046123d7565b611798565b61020d61027c36600461244b565b6001600160a01b03918216600090815260026020908152604080832093909416825291909152205460ff1690565b3360008181526002602090815260408083206001600160a01b0386168085529252808320805460ff19169055519092917f825c8be24eb0df19500f63e86c29e7d0d951e73056b889b891d85e40938d9b6e91a350565b33600081815260036020526040808220805460ff19166001179055517f1790d2915e4c45acea19ac4c15c61503a1428ec4921958b23af77114039c48019190a2565b3360009081526004602052604090205460ff166103945760405162461bcd60e51b815260206004820152600b60248201526a2737ba1034b739bab932b960a91b60448201526064015b60405180910390fd5b600060068054905090506006604051806101000160405280838152602001336001600160a01b03168152602001896001600160a01b0316815260200188888080601f0160208091040260200160405190810160405280939291908181526020018383808284376000920191909152505050908252506020808201889052604080518082018252600981526814dd589b5a5d1d195960ba1b81840152818401528051601f88018390048302810183019091528681526060909201919087908790819084018382808284376000920182905250938552505042602093840152508354600181810186559482529082902083516008909202019081559082015192810180546001600160a01b039485166001600160a01b031991821617909155604083015160028301805491909516911617909255606081015190919060038201906104dd9082612507565b506080820151600482015560a082015160058201906104fc9082612507565b5060c082015160068201906105119082612507565b5060e082015181600701555050866001600160a01b0316336001600160a01b0316827f0708f45fbc157b8c84bde1796b76e5ae602093565d545fee7b85ae708d7a23a989898989894260405161056c969594939291906125f0565b60405180910390a450505050505050565b6001600160a01b0381166000908152600560209081526040808320805482518185028101850190935280835260609492939192909184015b828210156106a6576000848152602090819020604080516080810182526004860290920180546001600160a01b039081168452600182015416938301939093526002830180549293929184019161060b9061247e565b80601f01602080910402602001604051908101604052809291908181526020018280546106379061247e565b80156106845780601f1061065957610100808354040283529160200191610684565b820191906000526020600020905b81548152906001019060200180831161066757829003601f168201915b50505050508152602001600382015481525050815260200190600101906105b5565b505050509050919050565b6040805160a0810182526001600160a01b03868116808352602080840188815284860188905260608501879052426080860152600092835260018083529583208054808801825590845291909220845160059092020180546001600160a01b0319169190931617825551919283929082019061072d9082612507565b50604082015160028201906107429082612507565b50606082015160038201906107579082612507565b50608091909101516004909101556000805460018101825590805281517f290decd9548b62a8d60345a988386fc84ba6bc95484008f6362f93160ef3e563600590920291820180546001600160a01b0319166001600160a01b03909216919091178155602083015183927f290decd9548b62a8d60345a988386fc84ba6bc95484008f6362f93160ef3e56401906107ee9082612507565b50604082015160028201906108039082612507565b50606082015160038201906108189082612507565b50608082015181600401555050846001600160a01b03167fec78adad673355e0eb77dd32082e63e27f5cb8c45bb3c6363afe41312af77e08858585426040516108649493929190612631565b60405180910390a25050505050565b60606000805b6006548110156108e257836001600160a01b0316600682815481106108a0576108a061267c565b60009182526020909120600260089092020101546001600160a01b0316036108d057816108cc81612692565b9250505b806108da81612692565b915050610879565b5060008167ffffffffffffffff8111156108fe576108fe612040565b60405190808252806020026020018201604052801561098957816020015b6109766040518061010001604052806000815260200160006001600160a01b0316815260200160006001600160a01b0316815260200160608152602001600081526020016060815260200160608152602001600081525090565b81526020019060019003908161091c5790505b5090506000805b600654811015610c3f57856001600160a01b0316600682815481106109b7576109b761267c565b60009182526020909120600260089092020101546001600160a01b031603610c2d57600681815481106109ec576109ec61267c565b6000918252602091829020604080516101008101825260089093029091018054835260018101546001600160a01b0390811694840194909452600281015490931690820152600382018054919291606084019190610a499061247e565b80601f0160208091040260200160405190810160405280929190818152602001828054610a759061247e565b8015610ac25780601f10610a9757610100808354040283529160200191610ac2565b820191906000526020600020905b815481529060010190602001808311610aa557829003601f168201915b5050505050815260200160048201548152602001600582018054610ae59061247e565b80601f0160208091040260200160405190810160405280929190818152602001828054610b119061247e565b8015610b5e5780601f10610b3357610100808354040283529160200191610b5e565b820191906000526020600020905b815481529060010190602001808311610b4157829003601f168201915b50505050508152602001600682018054610b779061247e565b80601f0160208091040260200160405190810160405280929190818152602001828054610ba39061247e565b8015610bf05780601f10610bc557610100808354040283529160200191610bf0565b820191906000526020600020905b815481529060010190602001808311610bd357829003601f168201915b50505050508152602001600782015481525050838380610c0f90612692565b945081518110610c2157610c2161267c565b60200260200101819052505b80610c3781612692565b915050610990565b5090949350505050565b6001600160a01b0381166000908152600160209081526040808320805482518185028101850190935280835260609492939192909184015b828210156106a65760008481526020908190206040805160a081019091526005850290910180546001600160a01b031682526001810180549293919291840191610cca9061247e565b80601f0160208091040260200160405190810160405280929190818152602001828054610cf69061247e565b8015610d435780601f10610d1857610100808354040283529160200191610d43565b820191906000526020600020905b815481529060010190602001808311610d2657829003601f168201915b50505050508152602001600282018054610d5c9061247e565b80601f0160208091040260200160405190810160405280929190818152602001828054610d889061247e565b8015610dd55780601f10610daa57610100808354040283529160200191610dd5565b820191906000526020600020905b815481529060010190602001808311610db857829003601f168201915b50505050508152602001600382018054610dee9061247e565b80601f0160208091040260200160405190810160405280929190818152602001828054610e1a9061247e565b8015610e675780601f10610e3c57610100808354040283529160200191610e67565b820191906000526020600020905b815481529060010190602001808311610e4a57829003601f168201915b5050505050815260200160048201548152505081526020019060010190610c81565b3360008181526002602090815260408083206001600160a01b0386168085529252808320805460ff19166001179055519092917f9f520b3bfc56d06f7065d10b4683b3f57ac8895d5026cd176dee95ce1454cb8d91a350565b3360009081526004602052604090205460ff16610f2f5760405162461bcd60e51b815260206004820152600b60248201526a2737ba1034b739bab932b960a91b604482015260640161038b565b6006548510610f705760405162461bcd60e51b815260206004820152600d60248201526c496e76616c696420636c61696d60981b604482015260640161038b565b600060068681548110610f8557610f8561267c565b600091825260209091206001600890920201908101549091506001600160a01b03163314610fe45760405162461bcd60e51b815260206004820152600c60248201526b27b7363c9034b739bab932b960a11b604482015260640161038b565b60058101610ff38587836126b9565b50600681016110038385836126b9565b50857f0352338c0a745eb7b4ffe245489a99b3e7cffe44ddcf8a9a10561b904e5ff5bc8686868660405161103a949392919061277a565b60405180910390a2505050505050565b3360009081526003602052604090205460ff166110985760405162461bcd60e51b815260206004820152600c60248201526b4e6f7420706861726d61637960a01b604482015260640161038b565b60006040518060800160405280336001600160a01b03168152602001856001600160a01b0316815260200184848080601f0160208091040260200160405190810160405280939291908181526020018383808284376000920182905250938552505042602093840152506001600160a01b03808816825260058352604080832080546001818101835591855293859020865160049095020180549484166001600160a01b0319958616178155948601519085018054919093169316929092179055820151919250829160028201906111709082612507565b50606082015181600301555050836001600160a01b0316336001600160a01b03167f4f7068636b4e2f3b8508718963a5d0a3ae08f55a6cd98c115e95a4d453505f978585426040516111c4939291906127ac565b60405180910390a350505050565b6060336001600160a01b038316148061120e57506001600160a01b038216600090815260026020908152604080832033845290915290205460ff165b61124b5760405162461bcd60e51b815260206004820152600e60248201526d139bdd08185d5d1a1bdc9a5e995960921b604482015260640161038b565b6001600160a01b038216600081815260016020526040902090330361149f5780805480602002602001604051908101604052809291908181526020016000905b828210156114935760008481526020908190206040805160a081019091526005850290910180546001600160a01b0316825260018101805492939192918401916112d49061247e565b80601f01602080910402602001604051908101604052809291908181526020018280546113009061247e565b801561134d5780601f106113225761010080835404028352916020019161134d565b820191906000526020600020905b81548152906001019060200180831161133057829003601f168201915b505050505081526020016002820180546113669061247e565b80601f01602080910402602001604051908101604052809291908181526020018280546113929061247e565b80156113df5780601f106113b4576101008083540402835291602001916113df565b820191906000526020600020905b8154815290600101906020018083116113c257829003601f168201915b505050505081526020016003820180546113f89061247e565b80601f01602080910402602001604051908101604052809291908181526020018280546114249061247e565b80156114715780601f1061144657610100808354040283529160200191611471565b820191906000526020600020905b81548152906001019060200180831161145457829003601f168201915b505050505081526020016004820154815250508152602001906001019061128b565b50505050915050919050565b3360009081526003602052604090205460ff16156114ec576114e5816040518060400160405280600c81526020016b283932b9b1b934b83a34b7b760a11b81525061196f565b9392505050565b3360009081526004602052604090205460ff161561152d576114e5816040518060400160405280600781526020016642696c6c696e6760c81b81525061196f565b80805480602002602001604051908101604052809291908181526020016000905b828210156114935760008481526020908190206040805160a081019091526005850290910180546001600160a01b0316825260018101805492939192918401916115979061247e565b80601f01602080910402602001604051908101604052809291908181526020018280546115c39061247e565b80156116105780601f106115e557610100808354040283529160200191611610565b820191906000526020600020905b8154815290600101906020018083116115f357829003601f168201915b505050505081526020016002820180546116299061247e565b80601f01602080910402602001604051908101604052809291908181526020018280546116559061247e565b80156116a25780601f10611677576101008083540402835291602001916116a2565b820191906000526020600020905b81548152906001019060200180831161168557829003601f168201915b505050505081526020016003820180546116bb9061247e565b80601f01602080910402602001604051908101604052809291908181526020018280546116e79061247e565b80156117345780601f1061170957610100808354040283529160200191611734565b820191906000526020600020905b81548152906001019060200180831161171757829003601f168201915b505050505081526020016004820154815250508152602001906001019061154e565b33600081815260046020526040808220805460ff19166001179055517f25fb9f4c94fb71107ebc226956d9fa5848c48e1a66ec8a02d3e74eb6db60f9369190a2565b6040805160a0810182526001600160a01b03858116808352602080840187815284860187905285518087018752600781526611d95b995c985b60ca1b818401526060860152426080860152600092835260018083529583208054808801825590845291909220845160059092020180546001600160a01b0319169190931617825551919283929082019061182c9082612507565b50604082015160028201906118419082612507565b50606082015160038201906118569082612507565b50608091909101516004909101556000805460018101825590805281517f290decd9548b62a8d60345a988386fc84ba6bc95484008f6362f93160ef3e563600590920291820180546001600160a01b0319166001600160a01b03909216919091178155602083015183927f290decd9548b62a8d60345a988386fc84ba6bc95484008f6362f93160ef3e56401906118ed9082612507565b50604082015160028201906119029082612507565b50606082015160038201906119179082612507565b50608082015181600401555050836001600160a01b03167fec78adad673355e0eb77dd32082e63e27f5cb8c45bb3c6363afe41312af77e08848442604051611961939291906127d0565b60405180910390a250505050565b60606000805b8454811015611a5857611a338582815481106119935761199361267c565b906000526020600020906005020160030180546119af9061247e565b80601f01602080910402602001604051908101604052809291908181526020018280546119db9061247e565b8015611a285780601f106119fd57610100808354040283529160200191611a28565b820191906000526020600020905b815481529060010190602001808311611a0b57829003601f168201915b505050505085611df3565b15611a465781611a4281612692565b9250505b80611a5081612692565b915050611975565b5060008167ffffffffffffffff811115611a7457611a74612040565b604051908082528060200260200182016040528015611ae057816020015b611acd6040518060a0016040528060006001600160a01b03168152602001606081526020016060815260200160608152602001600081525090565b815260200190600190039081611a925790505b5090506000805b8654811015611de857611ba5878281548110611b0557611b0561267c565b90600052602060002090600502016003018054611b219061247e565b80601f0160208091040260200160405190810160405280929190818152602001828054611b4d9061247e565b8015611b9a5780601f10611b6f57610100808354040283529160200191611b9a565b820191906000526020600020905b815481529060010190602001808311611b7d57829003601f168201915b505050505087611df3565b15611dd657868181548110611bbc57611bbc61267c565b60009182526020918290206040805160a0810190915260059092020180546001600160a01b031682526001810180549293919291840191611bfc9061247e565b80601f0160208091040260200160405190810160405280929190818152602001828054611c289061247e565b8015611c755780601f10611c4a57610100808354040283529160200191611c75565b820191906000526020600020905b815481529060010190602001808311611c5857829003601f168201915b50505050508152602001600282018054611c8e9061247e565b80601f0160208091040260200160405190810160405280929190818152602001828054611cba9061247e565b8015611d075780601f10611cdc57610100808354040283529160200191611d07565b820191906000526020600020905b815481529060010190602001808311611cea57829003601f168201915b50505050508152602001600382018054611d209061247e565b80601f0160208091040260200160405190810160405280929190818152602001828054611d4c9061247e565b8015611d995780601f10611d6e57610100808354040283529160200191611d99565b820191906000526020600020905b815481529060010190602001808311611d7c57829003601f168201915b50505050508152602001600482015481525050838380611db890612692565b945081518110611dca57611dca61267c565b60200260200101819052505b80611de081612692565b915050611ae7565b509095945050505050565b600081604051602001611e069190612828565b6040516020818303038152906040528051906020012083604051602001611e2d9190612828565b6040516020818303038152906040528051906020012014905092915050565b80356001600160a01b0381168114611e6357600080fd5b919050565b600060208284031215611e7a57600080fd5b6114e582611e4c565b60008083601f840112611e9557600080fd5b50813567ffffffffffffffff811115611ead57600080fd5b602083019150836020828501011115611ec557600080fd5b9250929050565b60008060008060008060808789031215611ee557600080fd5b611eee87611e4c565b9550602087013567ffffffffffffffff80821115611f0b57600080fd5b611f178a838b01611e83565b9097509550604089013594506060890135915080821115611f3757600080fd5b50611f4489828a01611e83565b979a9699509497509295939492505050565b60005b83811015611f71578181015183820152602001611f59565b50506000910152565b60008151808452611f92816020860160208601611f56565b601f01601f19169290920160200192915050565b60006020808301818452808551808352604092508286019150828160051b87010184880160005b8381101561203257888303603f19018552815180516001600160a01b0390811685528882015116888501528681015160808886018190529061201182870182611f7a565b60609384015196909301959095525094870194925090860190600101611fcd565b509098975050505050505050565b634e487b7160e01b600052604160045260246000fd5b600082601f83011261206757600080fd5b813567ffffffffffffffff8082111561208257612082612040565b604051601f8301601f19908116603f011681019082821181831017156120aa576120aa612040565b816040528381528660208588010111156120c357600080fd5b836020870160208301376000602085830101528094505050505092915050565b600080600080608085870312156120f957600080fd5b61210285611e4c565b9350602085013567ffffffffffffffff8082111561211f57600080fd5b61212b88838901612056565b9450604087013591508082111561214157600080fd5b61214d88838901612056565b9350606087013591508082111561216357600080fd5b5061217087828801612056565b91505092959194509250565b60006020808301818452808551808352604092508286019150828160051b87010184880160005b8381101561203257603f19898403018552815180518452878101516001600160a01b039081168986015287820151168785015260608082015161010082870181905291906121f383880182611f7a565b92505050608080830151818701525060a080830151868303828801526122198382611f7a565b9250505060c080830151868303828801526122348382611f7a565b60e09485015197909401969096525050948701949250908601906001016121a3565b60006020808301818452808551808352604092508286019150828160051b87010184880160005b8381101561203257888303603f19018552815180516001600160a01b031684528781015160a0898601819052906122b682870182611f7a565b91505087820151858203898701526122ce8282611f7a565b915050606080830151868303828801526122e88382611f7a565b608094850151979094019690965250509487019492509086019060010161227d565b60008060008060006060868803121561232257600080fd5b85359450602086013567ffffffffffffffff8082111561234157600080fd5b61234d89838a01611e83565b9096509450604088013591508082111561236657600080fd5b5061237388828901611e83565b969995985093965092949392505050565b60008060006040848603121561239957600080fd5b6123a284611e4c565b9250602084013567ffffffffffffffff8111156123be57600080fd5b6123ca86828701611e83565b9497909650939450505050565b6000806000606084860312156123ec57600080fd5b6123f584611e4c565b9250602084013567ffffffffffffffff8082111561241257600080fd5b61241e87838801612056565b9350604086013591508082111561243457600080fd5b5061244186828701612056565b9150509250925092565b6000806040838503121561245e57600080fd5b61246783611e4c565b915061247560208401611e4c565b90509250929050565b600181811c9082168061249257607f821691505b6020821081036124b257634e487b7160e01b600052602260045260246000fd5b50919050565b601f82111561250257600081815260208120601f850160051c810160208610156124df5750805b601f850160051c820191505b818110156124fe578281556001016124eb565b5050505b505050565b815167ffffffffffffffff81111561252157612521612040565b6125358161252f845461247e565b846124b8565b602080601f83116001811461256a57600084156125525750858301515b600019600386901b1c1916600185901b1785556124fe565b600085815260208120601f198616915b828110156125995788860151825594840194600190910190840161257a565b50858210156125b75787850151600019600388901b60f8161c191681555b5050505050600190811b01905550565b81835281816020850137506000828201602090810191909152601f909101601f19169091010190565b60808152600061260460808301888a6125c7565b866020840152828103604084015261261d8186886125c7565b915050826060830152979650505050505050565b6080815260006126446080830187611f7a565b82810360208401526126568187611f7a565b9050828103604084015261266a8186611f7a565b91505082606083015295945050505050565b634e487b7160e01b600052603260045260246000fd5b6000600182016126b257634e487b7160e01b600052601160045260246000fd5b5060010190565b67ffffffffffffffff8311156126d1576126d1612040565b6126e5836126df835461247e565b836124b8565b6000601f84116001811461271957600085156127015750838201355b600019600387901b1c1916600186901b178355612773565b600083815260209020601f19861690835b8281101561274a578685013582556020948501946001909201910161272a565b50868210156127675760001960f88860031b161c19848701351681555b505060018560011b0183555b5050505050565b60408152600061278e6040830186886125c7565b82810360208401526127a18185876125c7565b979650505050505050565b6040815260006127c06040830185876125c7565b9050826020830152949350505050565b6080815260006127e36080830186611f7a565b82810360208401526127f58186611f7a565b90508281036040840152600781526611d95b995c985b60ca1b602082015260408101915050826060830152949350505050565b6000825161283a818460208701611f56565b919091019291505056fea26469706673582212209b2006b1ca979fc4fefdd034227dcc61e809047adb77cd88f259786e6e371a3064736f6c63430008140033",
  "linkReferences": {},
  "deployedLinkReferences": {}
}