{
  "_format": "hh-sol-artifact-1",
  "contractName": "MediTrust",
  "sourceName": "contracts/MediTrust.sol",
  "abi": [
    {
      "anonymous": false,
      "inputs": [
        {
          "indexed": true,
          "internalType": "address",
          "name": "patient",
          "type": "address"
        },
        {
          "indexed": false,
          "internalType": "string",
          "name": "cid",
          "type": "string"
        },
        {
          "indexed": false,
          "internalType": "string",
          "name": "description",
          "type": "string"
        },
        {
          "indexed": false,
          "internalType": "uint256",
          "name": "timestamp",
          "type": "uint256"
        }
      ],
      "name": "RecordStored",
      "type": "event"
    },
    {
      "inputs": [
        {
          "internalType": "address",
          "name": "_patient",
          "type": "address"
        }
      ],
      "name": "getRecords",
      "outputs": [
        {
          "components": [
            {
              "internalType": "address",
              "name": "patient",
              "type": "address"
            },
            {
              "internalType": "string",
              "name": "cid",
              "type": "string"
            },
            {
              "internalType": "string",
              "name": "description",
              "type": "string"
            },
            {
              "internalType": "uint256",
              "name": "timestamp",
              "type": "uint256"
            }
          ],
          "internalType": "struct MediTrust.Record[]",
          "name": "",
          "type": "tuple[]"
        }
      ],
      "stateMutability": "view",
      "type": "function"
    },
    {
      "inputs": [
        {
          "internalType": "uint256",
          "name": "",
          "type": "uint256"
        }
      ],
      "name": "records",
      "outputs": [
        {
          "internalType": "address",
          "name": "patient",
          "type": "address"
        },
        {
          "internalType": "string",
          "name": "cid",
          "type": "string"
        },
        {
          "internalType": "string",
          "name": "description",
          "type": "string"
        },
        {
          "internalType": "uint256",
          "name": "timestamp",
          "type": "uint256"
        }
      ],
      "stateMutability": "view",
      "type": "function"
    },
    {
      "inputs": [
        {
          "internalType": "address",
          "name": "_patient",
          "type": "address"
        },
        {
          "internalType": "string",
          "name": "_cid",
          "type": "string"
        },
        {
          "internalType": "string",
          "name": "_desc",
          "type": "string"
        }
      ],
      "name": "storeRecord",
      "outputs": [],
      "stateMutability": "nonpayable",
      "type": "function"
    }
  ],
  "bytecode": "0x608060405234801561001057600080fd5b5061099c806100206000396000f3fe608060405234801561001057600080fd5b50600436106100415760003560e01c80633446106714610046578063a0076e8414610072578063f7ca0af014610092575b600080fd5b610059610054366004610544565b6100a7565b60405161006994939291906105a3565b60405180910390f35b610085610080366004610607565b6101fd565b6040516100699190610629565b6100a56100a0366004610773565b6103b6565b005b600081815481106100b757600080fd5b6000918252602090912060049091020180546001820180546001600160a01b039092169350906100e6906107e7565b80601f0160208091040260200160405190810160405280929190818152602001828054610112906107e7565b801561015f5780601f106101345761010080835404028352916020019161015f565b820191906000526020600020905b81548152906001019060200180831161014257829003601f168201915b505050505090806002018054610174906107e7565b80601f01602080910402602001604051908101604052809291908181526020018280546101a0906107e7565b80156101ed5780601f106101c2576101008083540402835291602001916101ed565b820191906000526020600020905b8154815290600101906020018083116101d057829003601f168201915b5050505050908060030154905084565b6001600160a01b0381166000908152600160209081526040808320805482518185028101850190935280835260609492939192909184015b828210156103ab57600084815260209081902060408051608081019091526004850290910180546001600160a01b03168252600181018054929391929184019161027e906107e7565b80601f01602080910402602001604051908101604052809291908181526020018280546102aa906107e7565b80156102f75780601f106102cc576101008083540402835291602001916102f7565b820191906000526020600020905b8154815290600101906020018083116102da57829003601f168201915b50505050508152602001600282018054610310906107e7565b80601f016020809104026020016040519081016040528092919081815260200182805461033c906107e7565b80156103895780601f1061035e57610100808354040283529160200191610389565b820191906000526020600020905b81548152906001019060200180831161036c57829003601f168201915b5050505050815260200160038201548152505081526020019060010190610235565b505050509050919050565b604080516080810182526001600160a01b038581168083526020808401878152848601879052426060860152600092835260018083529583208054808801825590845291909220845160049092020180546001600160a01b0319169190931617825551919283929082019061042b9082610870565b50604082015160028201906104409082610870565b50606091909101516003909101556000805460018101825590805281517f290decd9548b62a8d60345a988386fc84ba6bc95484008f6362f93160ef3e563600490920291820180546001600160a01b0319166001600160a01b03909216919091178155602083015183927f290decd9548b62a8d60345a988386fc84ba6bc95484008f6362f93160ef3e56401906104d79082610870565b50604082015160028201906104ec9082610870565b50606082015181600301555050836001600160a01b03167f2f476d5c183b5f6db52b986731f160de20d40d82c9f688c3d78442a090a4fea884844260405161053693929190610930565b60405180910390a250505050565b60006020828403121561055657600080fd5b5035919050565b6000815180845260005b8181101561058357602081850181015186830182015201610567565b506000602082860101526020601f19601f83011685010191505092915050565b6001600160a01b03851681526080602082018190526000906105c79083018661055d565b82810360408401526105d9818661055d565b91505082606083015295945050505050565b80356001600160a01b038116811461060257600080fd5b919050565b60006020828403121561061957600080fd5b610622826105eb565b9392505050565b60006020808301818452808551808352604092508286019150828160051b87010184880160005b838110156106c257888303603f19018552815180516001600160a01b03168452878101516080898601819052906106898287018261055d565b91505087820151858203898701526106a1828261055d565b60609384015196909301959095525094870194925090860190600101610650565b509098975050505050505050565b634e487b7160e01b600052604160045260246000fd5b600082601f8301126106f757600080fd5b813567ffffffffffffffff80821115610712576107126106d0565b604051601f8301601f19908116603f0116810190828211818310171561073a5761073a6106d0565b8160405283815286602085880101111561075357600080fd5b836020870160208301376000602085830101528094505050505092915050565b60008060006060848603121561078857600080fd5b610791846105eb565b9250602084013567ffffffffffffffff808211156107ae57600080fd5b6107ba878388016106e6565b935060408601359150808211156107d057600080fd5b506107dd868287016106e6565b9150509250925092565b600181811c908216806107fb57607f821691505b60208210810361081b57634e487b7160e01b600052602260045260246000fd5b50919050565b601f82111561086b57600081815260208120601f850160051c810160208610156108485750805b601f850160051c820191505b8181101561086757828155600101610854565b5050505b505050565b815167ffffffffffffffff81111561088a5761088a6106d0565b61089e8161089884546107e7565b84610821565b602080601f8311600181146108d357600084156108bb5750858301515b600019600386901b1c1916600185901b178555610867565b600085815260208120601f198616915b82811015610902578886015182559484019460019091019084016108e3565b50858210156109205787850151600019600388901b60f8161c191681555b5050505050600190811b01905550565b606081526000610943606083018661055d565b8281036020840152610955818661055d565b91505082604083015294935050505056fea2646970667358221220b4f6532ea3cd2fe44676716302d8f61e118aa35ee914ac428809853b9ac0751964736f6c63430008140033",
  "linkReferences": {},
  "deployedLinkReferences": {}
}